:020000040800F2
:10000000F011002009010008A92700087325000845
:10001000A527000839020008F1530008000000007D
:10002000000000000000000000000000492D000852
:100030001F070008000000009F2C00084B2D00083F
:100040002301000823010008230100082301000800
:1000500023010008230100082301000823010008F0
:1000600023010008230100082301000823010008E0
:1000700023010008230100082301000823010008D0
:1000800023010008230100082301000823010008C0
:100090004153000823010008230100082301000840
:1000A00000000000230100082301000823010008CC
:1000B0002301000823010008230100082301000890
:1000C0002301000823010008230100082301000880
:1000D0002301000823010008230100082301000870
:1000E0002301000823010008230100082301000860
:1000F00023010008DFF80CD000F08CF8004800471E
:1001000049570008F011002006488047064800477C
:10011000FEE7FEE7FEE7FEE7FEE7FEE7FEE7FEE7B7
:10012000FEE7FEE7CD2D0008F50000082DE9F05FA1
:100130000546002092469B46884606468146402456
:100140001BE0284641464746224600F053F85346F6
:100150005A46C01A914110D311461846224600F063
:100160003AF82D1A67EB01084F462246012000217C
:1001700000F031F817EB00094E41201EA4F10104F4
:10018000DFDC484631462A464346BDE8F09F40EA58
:1001900001039B0703D009E008C9121F08C0042A05
:1001A000FAD203E011F8013B00F8013B521EF9D2EC
:1001B0007047D2B201E000F8012B491EFBD2704714
:1001C0000022F6E710B513460A4604461946FFF723
:1001D000F0FF204610BD202A04DB203A00FA02F18D
:1001E000002070479140C2F1200320FA03F3194325
:1001F00090407047202A04DB203A21FA02F00021C7
:10020000704721FA02F3D040C2F120029140084326
:1002100019467047064C074D06E0E06840F00103C0
:1002200094E8070098471034AC42F6D3FFF766FF16
:100230009C580008BC58000800BFFEE70146D1F8F2
:10024000900290F81824022A0FD090F81824032A5C
:100250000BD090F81824052A07D090F81824062A05
:1002600003D090F81824092A19D1022280F8182402
:10027000002280F81024002340F211421354521C33
:100280001354521C135490F81834521C1354002366
:10029000521C13540022C0F80024C0F804247047F4
:1002A0000146D1F8900290F818240A2A15D10222AA
:1002B00080F81824002280F81024002340F2114214
:1002C0001354521C1354521C135490F81834521CDB
:1002D00013540023521C135414E00A2280F81824EB
:1002E0000E2280F81024002340F211421354521CB5
:1002F0001354521C135490F81834521C13540023F6
:10030000521C13547047000070B505460E46D5F8D0
:10031000904294F8180402280FD094F81804032887
:100320000BD094F81804052807D094F81804062870
:1003300003D094F81804092819D1022084F818046D
:10034000002084F81004002140F211400155401CA7
:100350000155401C015594F81814401C015500210A
:10036000401C01550020C4F80004C4F804040848E7
:10037000407D00F0100030B1284603F08CFF284685
:1003800003F0D6FD02E0708800F084FA70BD000032
:10039000BC00002070B506460D46D6F89042E888AD
:1003A00010B394F81804022803D094F81804052810
:1003B00015D16888C4F80004E888C4F80404032050
:1003C00084F8180494F8181440F214400155B4F855
:1003D000040482B22146304602F069FE23E0294639
:1003E000304602F058FE1EE094F81804052803D0A9
:1003F00094F81804022812D1012084F81904062068
:1004000084F81804002140F211400155401C0155A8
:10041000401C015594F81814401C015503E029466E
:10042000304602F038FE70BD70B50446D4F89052E4
:10043000012205F58361204602F05AFE70BD0000DE
:1004400070B50546D5F8904294F81804032802D0F8
:10045000062869D13BE0D4F8040440B3042084F8B2
:100460001804002140F211400155401C0155401C68
:10047000015594F81814401C0155D4F8000460B9D3
:100480002078412809D1D4F80804D5F8941204F54D
:1004900082628B690021984718E0D4F80804D5F8E7
:1004A000941204F582628B69012198470EE00520C1
:1004B00084F81804002140F211400155401C0155F8
:1004C000401C015594F81814401C01552DE094F877
:1004D0001904012810D1072084F81804012140F2E2
:1004E000114001550021401C0155401C015594F854
:1004F0001814401C015516E094F8190498B90F48D7
:10050000007D00F0040070B1022084F8180400217E
:1005100040F211400155401C0155401C015594F812
:100520001814401C015500E000BF00BF062204F56E
:100530008261284602F0DCFD70BD0000BC00002096
:1005400070B50546D5F89042002084F81904244877
:10055000007D00F0040078B1062084F81804002122
:1005600040F211400155401C0155401C015594F8C2
:100570001814401C015570BD082084F8180400218F
:1005800040F211400155401C0155401C015594F8A2
:100590001814401C0155284603F07DFED5F894122E
:1005A0008868804700BF00BF00BF00BF00BFBFF327
:1005B0004F8F00BF00BF00BF0A48006800F4E06032
:1005C00009490843001D0749086000BF00BF00BF7C
:1005D000BFF34F8F00BF00BF00BF00BF00BFFDE7EC
:1005E000BC0000200CED00E00000FA052DE9F04110
:1005F00006460D46D6F890420027B846E8880028FF
:100600007CD094F81804022803D094F81804092820
:100610006AD16888C4F80004E888C4F80404D4F8EF
:10062000000400BBD4F80404032801D9022000E030
:10063000092084F81804002140F211400155401CA3
:100640000155401C015594F81814401C0155002018
:100650002070212060704120A07003222146304686
:1006600002F046FD59E0D4F80004012826D90920FB
:1006700084F81804002140F211400155401C015536
:10068000401C015594F81814401C0155D4F800047E
:10069000801ED4F8081401EB8028D4F80424D6F87E
:1006A000940221464369404698470746B4F804043B
:1006B00082B23946304602F01BFD2EE00F2084F84E
:1006C0001804002140F211400155401C0155401C06
:1006D000015594F81814401C01552946304602F083
:1006E000DAFC1AE00AE0FFE70020C4F80404C4F8CA
:1006F00000042946304602F0CEFC0EE0022084F8C9
:100700001804002140F211400155401C0155401CC5
:10071000015594F81814401C0155BDE8F08170474C
:1007200072B600BFFEE700000021094A5161094985
:10073000096841F40071074A11601146096841F0E7
:1007400008011160002120F0FF02116070470000D5
:10075000D80C0020043C024000201F49096801F425
:100760008071B1F5807F07D11C49496941F00201D0
:100770001A4A516140F480701749096801F4007108
:10078000B1F5007F07D11549496941F00101134ACC
:10079000516140F400701049096801F40061B1F53D
:1007A000006F07D10D49496941F004010B4A5161BD
:1007B00040F400600849096801F48061B1F5806F78
:1007C00007D10649496941F00801044A516140F4E2
:1007D0008060014908607047183C0240D80C002036
:1007E00070B5044600F008FA054609E0601C38B10F
:1007F00024B100F001FA401BA04201D9032070BDD2
:100800001748006800F001000028EFD11448006884
:1008100000F00200022801D1114908601048006868
:1008200000F48070B0F5807F14D00D48006800F4AB
:100830000060B0F5006F0DD00948006800F48060DA
:10084000B0F5806F06D00648006800F40070B0F57F
:10085000007F03D1FFF780FF0120D0E70020CEE723
:10086000183C024070B50948046D456D866D3444EE
:1008700054B108220649204601F07DFE04220449B5
:100880001031284601F077FE70BD00000000F81F0F
:100890003600002070B5044600F0AEF90646254645
:1008A000681C10B104480068054400BF00F0A4F9BA
:1008B000801BA842FAD370BD740000202DE9F041DE
:1008C00004460E460127002500BF1E48007C012873
:1008D00002D10220BDE8F08101201A49087400BF4E
:1008E0004CF25030FFF77CFF07461FBB4FF0FF3044
:1008F0003060656817E02846FFF716FF4CF250306D
:10090000FFF76EFF07461048006820F008000E4908
:1009100008600846006820F4007008600FB1356078
:1009200007E005F58075D4E9011001EB0020A8422D
:10093000E1D800BF00BF00200249087400BF38465C
:10094000C8E70000D80C0020043C024003480068BF
:1009500040F002000149086000207047043C02405A
:100960002DE9F04107460C461546012600BF104808
:10097000007C012802D10220BDE8F08101200C4951
:10098000087400BF4CF25030FFF72AFF064646B904
:1009900000200749486125604CF25030FFF720FFE6
:1009A000064600BF00200249087400BF3046E3E756
:1009B000D80C00201348006800F0020002281FD164
:1009C0001048006800F0010060B10F480D4908317F
:1009D00008600E4808600B48006800F0010008B18C
:1009E000012070470A4807490C310860094808602F
:1009F0000448006800F00200022801D10120F0E75D
:100A00000020EEE7043C0240EFCDAB890504030271
:100A1000BFAE9D8C1615141378B503460A46002107
:100A200000240020C4E001268E40156805EA060473
:100A3000002C72D0157905F00305012D04D015792D
:100A400005F00305022D13D198684E000325B5402B
:100A5000A8434E00D568B5402843986058680125E2
:100A60008D40A8431579C5F300158D402843586083
:100A7000157905F00305032D09D0D8684E0003252C
:100A8000B540A8434E009568B5402843D860157915
:100A900005F00305022D13D1CE0803F1200555F80A
:100AA00026004D07EE0E0F25B540A8434E07F60E63
:100AB0001569B5402843CE0803F1200545F8260006
:100AC00018684E000325B540A843157905F00305C5
:100AD0004E00B54028431860556805F44035002D98
:100AE00065D000BF354D2D6845F00105334E3560AA
:100AF00035462D6805F00105009500BF00BF304D5B
:100B00008E0855F826008D072E0F0F25B540A843F7
:100B10002C4DAB4202D1002515E048E02A4DAB42F6
:100B200001D101250FE0294DAB4201D102250AE098
:100B3000274DAB4201D1032505E0264DAB4201D143
:100B4000042500E005258E07360FB54028431C4DCF
:100B50008E0845F82600204D2868A043556805F406
:100B6000801505B120431C4D28602D1D2868A04329
:100B7000556805F4001505B12043174D2D1D28605B
:100B8000154D2D1F2868A043556805F4003505B1A3
:100B90002043114D2D1F28602D1F2868A043556844
:100BA00005F4803505B120430B4D083D2860491CF4
:100BB0001568CD40002D7FF436AF78BD2038024057
:100BC000080001400000024000040240000802400A
:100BD000000C024000100240080401400246136964
:100BE0000B400BB1012000E0002070470AB1816189
:100BF00001E00B0483617047014800687047000002
:100C00006C00002003480068034909680844014952
:100C1000086070476C0000207400002010B50024AC
:100C2000032000F0B3F80F2000F008F808B1012409
:100C300001E000F02FF8204610BD000070B504461A
:100C4000002511480068D8B10F4800684FF47A7148
:100C5000B1FBF0F00D490968B1FBF0F6304601F048
:100C60009BFB58B9102C07D200222146501E00F0E1
:100C70004FF80748046004E0012502E0012500E088
:100C80000125284670BD0000740000207800002077
:100C90007000002008B500BF1448006840F0004014
:100CA000124908600846006800F00040009000BF4C
:100CB00000BF00BF081F006840F00100091F086066
:100CC0000846006800F00100009000BF00BF00BFB0
:100CD000081D006840F08050091D08600846006843
:100CE00000F08050009000BF00BF08BD24380240D3
:100CF00001460846002809DB00F01F0301229A4044
:100D000043099B0003F1E023C3F8002100BF7047B3
:100D10002DE9F05F80460D461646002704F07AFB69
:100D2000074639462A46334601F00700C0F1070A54
:100D3000BAF1040F02D94FF0040A01E0C0F1070A2A
:100D4000D14600F1040ABAF1070F02D24FF0000AAF
:100D500001E0A0F1030AD4464FF0010A0AFA09FAA9
:100D6000AAF1010A0AEA020A0AFA0CFA4FF0010B88
:100D70000BFA0CFBABF1010B0BEA030B4AEA0B0479
:100D80002146404604F04EFBBDE8F09F00BF00F056
:100D90000702064B19684FF6FF031940044B0B433B
:100DA00043EA0221014B196000BF70470CED00E0DF
:100DB0000000FA0570B505460C4604F08000802856
:100DC00008D104F0070000EB800605F1280000EBD5
:100DD000C60105E004EB840605F5B47000EBC6011E
:100DE0001AB900200873CB8004E0012008730B813E
:100DF000180C4881002070BD012906D1064A5268AE
:100E000042F00102044B5A6005E0034A526822F0A6
:100E10000102014B5A6070470000014070B5044662
:100E20000D4605EB850304F1280101EBC3014A6976
:100E30002946D4F8E80202F06BFD70BD70B5044697
:100E40000D4605EB850304F5B47101EBC3014A6956
:100E50002946D4F8E80202F0DBFD70BD70B5044607
:100E60000E4606F00F006168884201D9012070BD6E
:100E700006F0800080280AD106F0070000EB800110
:100E800004F1280000EBC1050120687009E006F0BC
:100E9000070000EB800104F5B47000EBC1050020F1
:100EA00068700020A87006F00700287000BF94F852
:100EB000A802012801D10220D9E7012084F8A80264
:100EC00000BF2946206803F06EFC00BF002084F8B4
:100ED000A80200BF00BFCAE72DE9F04105460C4655
:100EE000174607F48040002850D02868B0F850100A
:100EF000207801EBC000801C296801F5806131F881
:100F00001000C0F30906A069B04203D3A069801B9A
:100F1000A06101E00020A061A069A8B900BF22780B
:100F20005200296831F812104BF68F7201EA020064
:100F300080F4005040F4004141F0800123785B00D0
:100F40002A6822F8131000BF07F04000A8B100BFC4
:100F500000BF22785200296831F8121048F68F72CB
:100F600001EA020040F4004141F0C00123785B0037
:100F70002A6822F8131000BF00BF002E55D0228926
:100F800061693346286804F0E7F94EE02868B0F854
:100F90005010207801EBC000801D296801F58061A8
:100FA00031F81000C0F30906A069B04203D3A0696C
:100FB000801BA06101E00020A061A069A8B900BF6A
:100FC00022785200296831F812104BF68F7201EA2C
:100FD000020080F4005040F4004141F08001237889
:100FE0005B002A6822F8131000BF07F04000A8B980
:100FF00000BF00BF22785200296831F8121048F66D
:101000008F7201EA020040F4004141F0C0012378F0
:101010005B002A6822F8131000BF00BF2EB162895E
:1010200061693346286804F097F93046BDE8F081DD
:101030002DE9F04705460C46904608F04000002890
:101040007ED02868B0F85010207801EBC000801CDA
:10105000296801F5806131F81000C0F30907A06923
:10106000B84203D9A069C01BA06101E00020A061C3
:10107000A06900287ED100BF6078C0B900BF296890
:101080002A68B2F8502011442278022303EBC202EE
:1010900001F5806303EB420000BF0288C2F309023E
:1010A0000280028842F40042028000BF13E06078B0
:1010B000012810D100BF28682A68B2F850201044D7
:1010C0002278022303EBC20200F5806303EB4201A6
:1010D00000220A8000BF00BF00BF29686078F8B90D
:1010E00000BF2B68D5F800C0BCF850C0634494F82A
:1010F00000C04FF0060909EBCC0C03F5806909EB41
:101100004C0000BFB0F800C0CCF3090CA0F800C040
:10111000B0F800C04CF4004CA0F800C000BF12E0D2
:10112000607801280FD12868B0F850000144207879
:10113000062303EBC00001F5806303EB400200E0EF
:10114000B7E00020108000BF21782846FFF766FE38
:1011500008F48040002816D000BF00BF227852005B
:10116000296831F8121048F68F7201EA020040F443
:10117000004100E008E041F4814123785B002A68E7
:1011800022F8131000BFD7E108F48040A8B100BFD7
:1011900000BF22785200296831F8121048F68F7289
:1011A00001EA020040F4004141F4814123785B00F0
:1011B0002A6822F8131000BF00BF94F82400012809
:1011C000E1D1606938446061E0693844E0612169D7
:1011D000206A884204D32669206A801B20620BE0C3
:1011E000206A20B93E46002084F8240004E0002054
:1011F00084F82400266A206200BF6078E8BB00BF44
:101200002A682968B1F850100A442178022303EBB8
:10121000C10102F5806303EB4101084600BF03886A
:10122000C3F3090303803E2E10D900BF710906F0F5
:101230001F0303B9491E03884FF4004C4CEA812C6C
:101240001FFA8CFC43EA0C03038014E026B90388E0
:1012500043F4004303800EE000BF710806F0010371
:1012600003B1491C03884FF6FF7C0CEA812C43EA4A
:101270000C03038000BF00BF13E0FFE76078012884
:101280000FD100BF28682A68B2F850201044227895
:10129000022303EBC20200F5806303EB42010E80E0
:1012A00000BF00BFB3B222896169286804F080F8EA
:1012B00042E12868B0F85010207801EBC000801D92
:1012C000296801F5806131F81000C0F30907A069B1
:1012D000B84203D3A069C01BA06101E00020A06157
:1012E000A06900287ED100BF6078C0B900BF29681E
:1012F0002A68B2F8502011442278022303EBC2027C
:1013000001F5806303EB420000BF0288C2F30902CB
:101310000280028842F40042028000BF13E060783D
:10132000012810D100BF28682A68B2F85020104464
:101330002278022303EBC20200F5806303EB420133
:1013400000220A8000BF00BF00BF29686078F8B99A
:1013500000BF2B68D5F800C0BCF850C0634494F8B7
:1013600000C04FF0060909EBCC0C03F5806909EBCE
:101370004C0000BFB0F800C0CCF3090CA0F800C0CE
:10138000B0F800C04CF4004CA0F800C000BF10E062
:10139000607801280DD12868B0F850000144207809
:1013A000062303EBC00001F5806303EB400200203D
:1013B000108000BF21782846FFF730FD08F48040F8
:1013C000002816D100BF00BF22785200296831F8EA
:1013D000121048F68F7201EA020040F4004141F415
:1013E000814100E006E023785B002A6822F81310B0
:1013F00000BFA1E008F48040A8B900BF00BF227878
:101400005200296831F8121048F68F7201EA020082
:1014100040F4004141F4814123785B002A6822F8BE
:10142000131000BF00BF94F8240001287ED160692A
:1014300038446061E0693844E0612169206A88428B
:1014400004D32669206A801B20620BE0206A20B941
:101450003E46002084F8240004E0266A0020206232
:1014600084F8240000BF2A68607870BB00BFD5F8FC
:1014700000C02968B1F850108C4421784FF006095B
:1014800009EBC1010CF5806909EB4101084600BF79
:10149000B0F80090C9F30909A0F800903E2E15D9C4
:1014A00000BF710906F01F09B9F1000F00D1491EF4
:1014B000B0F800904FF4004A4AEA812A1FFA8AFAEB
:1014C00049EA0A09A0F800901BE01CE036B9B0F820
:1014D000009049F40049A0F8009012E000BF7108A4
:1014E00006F00109B9F1000F00D0491CB0F80090D6
:1014F0004FF6FF7A0AEA812A49EA0A09A0F8009021
:1015000000BF00BF0FE0607801280CD12868B0F858
:10151000500002442078062101EBC00002F58061F2
:1015200001EB40031E8000BFB3B200E004E062891B
:101530006169286803F03CFF00BF227852002968E7
:1015400031F8121048F6BF7201EA020080F0100074
:1015500080F0200040F4004141F0800223785B00DD
:10156000296821F8132000BF0020BDE8F0872DE98D
:10157000F04705460E4690461F464FF0000906F01C
:10158000800080280AD106F0070000EB800105F1F9
:10159000280000EBC1040120607009E006F007009C
:1015A00000EB800105F5B47000EBC1040020607011
:1015B00006F007002070C4F81080E770022F01D1F8
:1015C0000020207100BF95F8A802012802D1022056
:1015D000BDE8F087012085F8A80200BF21462868F1
:1015E00002F06EFE00BF002085F8A80200BF48464A
:1015F000EEE72DE9F04105460E461746984606F0FF
:10160000070000EB800105F5B47000EBC1046761D1
:10161000C4F818800020E061607006F007002070B8
:101620002146286803F05AF90020BDE8F08170B522
:1016300004460E4606F007006168884201D9012081
:1016400070BD06F0800080280AD106F0070000EB8C
:10165000800104F1280000EBC1050120687007E05B
:1016600006EB860104F5B47000EBC105002068703C
:101670000120A87006F00700287000BF94F8A802A7
:10168000012801D10220DBE7012084F8A80200BF75
:101690002946206803F0F4F800BF002084F8A8026F
:1016A00000BF00BFCCE72DE9F04105460E4690464D
:1016B0001F4606F0070000EB800105F1280000EB53
:1016C000C104C4F81480A761012084F824002762B3
:1016D0000020E0610120607006F0070020702146C4
:1016E000286803F0FBF80020BDE8F08170B50446DF
:1016F000206803F02DFE054605F40040B0F5004FCC
:1017000003D1204601F052F870BD05F48060B0F5B9
:10171000806F10D12068B0F844004FF6FF310840C8
:101720002168A1F84400204600F036F90021204647
:1017300000F052F9E8E705F48040B0F5804F09D198
:101740002068B0F844004BF6FF7108402168A1F80A
:101750004400D9E705F40050B0F5005F09D12068D6
:10176000B0F844004DF6FF7108402168A1F844002C
:10177000CAE705F48050B0F5805F1ED12068B0F84C
:1017800040004FF6FB7108402168A1F84000206836
:10179000B0F840004FF6F77108402168A1F840000A
:1017A000204600F00BF92068B0F844004EF6FF71B7
:1017B00008402168A1F84400A6E705F40060B0F5F0
:1017C000006F1CD12068B0F8400040F0080021688C
:1017D000A1F840002068B0F844004FF2FF710840C3
:1017E0002168A1F844002068B0F8400040F00400EF
:1017F0002168A1F84000204600F04EF984E705F486
:101800000070B0F5007F0CD12068B0F844004FF6AE
:10181000FF5108402168A1F84400204600F0D5F8A7
:1018200072E705F48070B0F5807F09D12068B0F8C8
:1018300044004FF6FF6108402168A1F8440063E7C7
:1018400000BF61E730B585B0044614B9012005B08A
:1018500030BD94F8A90228B9002084F8A8022046D7
:1018600000F078F8032084F8A902206802F091FFC4
:1018700000252AE0012105EB850204F1280000EB98
:10188000C200417005EB850104F1280000F83150D9
:10189000002105EB850200EBC200C17005EB85025B
:1018A00004F1280000EBC200016105EB850204F1A0
:1018B000280000EBC200416105EB850204F128001D
:1018C00000EBC2008161681CC5B26068A842D1D833
:1018D00000252AE0002105EB850204F5B47000EB39
:1018E000C200417005EB850104F5B47000F8315079
:1018F000002105EB850200EBC200C17005EB8502FB
:1019000004F5B47000EBC200016105EB850204F53B
:10191000B47000EBC200416105EB850204F5B470C0
:1019200000EBC2008161681CC5B26068A842D1D8D2
:10193000142204F110016846FEF729FC94E80F0018
:1019400002F01CFF002084F82400012084F8A90282
:1019500000207CE738B504460D492068884215D13F
:1019600000BF0C48006840F400000A4908600846BF
:10197000006800F40000009000BF00BF0022114684
:101980001420FFF7C5F91420FFF7B2F938BD0000A5
:10199000005C00402438024070B504460125A06870
:1019A000022801D0FEF7BCFE2946D4F8E80202F076
:1019B00041F9D4F8E80202F0F7F870BD10B504461A
:1019C000D4F8E80202F01EF910BD10B50446D4F8B0
:1019D000E80202F01EF910BD70B504460D4600BFC6
:1019E00094F8A802012801D1022070BD012084F8DA
:1019F000A80200BF84F824502946206803F0D1FCD7
:101A000000BF002084F8A80200BF00BFEDE710B5BA
:101A1000044604F52C71D4F8E80202F022F910BD56
:101A200010B5044600BF94F8A802012801D1022095
:101A300010BD012084F8A80200BF206803F076FCE6
:101A400001212046FFF7D8F9206802F091FE00BF7F
:101A5000002084F8A80200BF00BFE9E710B50446E3
:101A600000BF94F8A802012801D1022010BD012076
:101A700084F8A80200BF206802F08BFE00212046F7
:101A8000FFF7BAF9206802F076FE00BF002084F864
:101A9000A80200BF00BFE9E710B50446D4F8E80289
:101AA00002F047F9A06928B10348006840F0060039
:101AB0000149086010BD000010ED00E02DE9F04183
:101AC00004460D4614B90120BDE8F0817E48006847
:101AD00000F00100A84218D200BF012D05D17A48BC
:101AE000006840F00400784908607748006820F0FA
:101AF000010028437449086000BF0846006800F0F0
:101B00000100A84201D00120DEE7207800F00200A9
:101B1000022807D16D48006820F0F000A168084352
:101B20006A490860207800F0010000287FD06068D2
:101B3000022807D165480838006800F40030F8B979
:101B40000120C1E76068032807D1604808380068B1
:101B500000F00070A0B90120B6E76068012807D145
:101B60005A480838006800F0020048B90120ABE785
:101B700056480838006800F4007008B90120A3E74F
:101B80005248006820F00300616808434F4908602C
:101B9000FFF732F806466068022810D108E0FFF728
:101BA0002BF8801B41F28831884201D903208BE752
:101BB0004648006800F00C000828F0D137E0606863
:101BC000032810D108E0FFF717F8801B41F2883195
:101BD000884201D9032077E73C48006800F00C00F8
:101BE0000C28F0D123E06068012810D108E0FFF74D
:101BF00003F8801B41F28831884201D9032063E752
:101C00003248006800F00C000428F0D10FE008E032
:101C1000FEF7F2FF801B41F28831884201D9032090
:101C200052E72A48006800F00C000028F0D126484E
:101C3000006800F00100A84218D900BF012D05D1AD
:101C40002148006840F004001F4908601E480068F1
:101C500020F0010028431C49086000BF08460068C6
:101C600000F00100A84201D001202DE7207800F00B
:101C70000400042807D11548006820F4E060E168FA
:101C8000084312490860207800F00800082808D1AD
:101C90000E48006820F46050216940EAC1000B49F9
:101CA000086000F041F809490968C1F30311084AC6
:101CB000515CC8400749086007480068FEF7BEFF4E
:101CC0000746384600E70000003C02400838024062
:101CD00021580008780000207000002001480068AA
:101CE000704700007800002000B5FFF7F7FF0449B7
:101CF0000968C1F30221034A515CC84000BD0000DD
:101D0000083802403158000800B5FFF7E7FF0449E2
:101D10000968C1F3C221034A515CC84000BD0000FC
:101D200008380240315800082DE9F05F2248D0F809
:101D3000009009F00C0070B3042804D0082804D0E7
:101D40000C2829D103E01D4D32E01D4D30E01D4827
:101D5000C9F3834110F801A0C9F38150441C16480F
:101D6000006800F4803050B11548A0FB0A700146AD
:101D7000224600233846FEF7D9F9064609E00F4807
:101D8000A0FB0A700146224600233846FEF7CEF932
:101D9000064635460CE000E000BF0748001F00681B
:101DA000C0F3423B0BF1010001218140CD0300BF94
:101DB00000BF2846BDE8F09F083802400024F40028
:101DC000001BB700185800082DE9F843044614B961
:101DD0000120BDE8F883FE48006800F00C06FC48CE
:101DE000006800F48037207800F00100002875D0EA
:101DF000082E04D00C2E0ED1B7F5803F0BD1F4483D
:101E00000838006800F40030002867D060680028B7
:101E100064D10120DDE700BF6068012808D1EC48EB
:101E20000838006840F48030E949083908602DE03E
:101E3000606868B9E6480838006820F48030E449F2
:101E4000083908600846006820F4802008601DE01A
:101E5000606805280DD1DE480838006840F480200D
:101E6000DB49083908600846006840F480300860A3
:101E70000CE0D7480838006820F48030D44908398D
:101E800008600846006820F48020086000BF606891
:101E900090B1FEF7B1FE054606E0FEF7ADFE401B31
:101EA000642801D9032094E7C9480838006800F481
:101EB00000300028F1D011E0FEF79EFE054606E056
:101EC000FEF79AFE401B642801D9032081E7C04831
:101ED0000838006800F400300028F1D1207800F0C4
:101EE0000200022853D1042E02D00C2E17D1B7B90C
:101EF000B7480838006800F0020020B1E068012807
:101F000001D0012065E7B248001F006820F4F850B6
:101F1000216940EA0120AE49091F086037E0E06806
:101F200000B30120AB490860FEF766FE054606E0F7
:101F3000FEF762FE401B022801D9032049E7A448AE
:101F40000838006800F002000028F1D0A048001F07
:101F5000006820F4F850216940EA01209C49091FDB
:101F6000086014E000209B490860FEF745FE054626
:101F700006E0FEF741FE401B022801D9032028E7B6
:101F800093480838006800F002000028F1D120785A
:101F900000F01000102871D1F6BB8D480838006899
:101FA00000F4007018B1A06908B9012011E7884950
:101FB000091F206A096801F46041884219D9206A22
:101FC00000F06EFE08B1012003E78148001F0068A1
:101FD00020F46040216A08437D49091F0860217F81
:101FE0007B48001F006861F31F607949091F086082
:101FF0001AE07748001F006820F46040216A084317
:102000007349091F0860217F7148001F006861F350
:102010001F606F49091F00E020E00860206A00F09F
:102020003FFE08B10120D4E60121206A01EB5031C6
:1020300001208840C00366490968C1F30311664A5C
:10204000515CC8406549086065480068FEF7F6FDC8
:102050008046B8F1000F42D04046BAE6A06948B3C6
:1020600001205C490862FEF7C7FD054607E0FEF760
:10207000C3FD401B022802D90320AAE62FE05448E2
:102080000838006800F400700028F0D05048001FA5
:10209000006820F46040216A08434D49091F086028
:1020A000217F4B48001F006861F31F604849091FEA
:1020B000086014E0002047490862FEF79DFD0546D0
:1020C00006E0FEF799FD401B022801D9032080E6B7
:1020D0003F480838006800F400700028F1D12078EB
:1020E00000F0080008282CD16069A8B101203D4902
:1020F0000860FEF781FD054606E0FEF77DFD401B0A
:10210000022801D9032064E631482C30006800F031
:1021100002000028F1D014E0002032490860FEF7E8
:102120006BFD054606E0FEF767FD401B022801D95E
:1021300003204EE626482C30006800F002000028FC
:10214000F1D1207800F0040004286ED14FF000098E
:102150001F481C30006800F0805088B900BF1C4840
:102160001C30006840F0805019491C310860084656
:10217000006800F08050009000BF00BF4FF00109E0
:102180001948006800F48070B0B91748006840F43E
:10219000807015490860FEF72FFD054606E0FEF742
:1021A0002BFD401B642801D9032012E60E4800686D
:1021B00000F480700028F2D000BFA068012817D179
:1021C00003482C30006840F4807001492C310DE048
:1021D00008380240000047422158000878000020DB
:1021E000700000208006474200700040086028E030
:1021F000A06858B96648006820F480706449086097
:102200000846006820F4806008601AE0A06805288D
:102210000CD15F48006840F480605D490860084662
:10222000006840F4807008600BE040E058480068A7
:1022300020F48070564908600846006820F48060E9
:10224000086000BFA06898B1FEF7D6FC054608E01C
:10225000FEF7D2FC401B41F28831884201D90320AD
:10226000B7E54B48006800F400700028F0D012E099
:10227000FEF7C2FC054608E0FEF7BEFC401B41F23B
:102280008831884201D90320A3E54148006800F461
:1022900000700028F0D1B9F1010F07D13C48103887
:1022A000006820F080503A491039086000BF606A29
:1022B000A8B30C2E52D0606A022839D100203549CB
:1022C0000866FEF799FC054606E0FEF795FC401B04
:1022D000022801D903207CE52D483438006800F03D
:1022E00000700028F1D1D4E90A010843216B0843AA
:1022F00027492C39096821F47D01084324492C39E8
:102300000860012023490866FEF776FC054607E0D1
:10231000FEF772FC401B022802D9032059E535E084
:102320001B483438006800F000700028F0D02DE021
:10233000002018490866FEF75FFC054606E0FEF738
:102340005BFC401B022801D9032042E510483438C9
:10235000006800F000700028F1D117E0606A0128E1
:1023600000D136E50A482C38076807F48031A06AA6
:10237000814209D107F47011E06A814204D107F467
:102380004001206B814201D0012022E5002020E5A0
:10239000343802400000474270B504462546681EA6
:1023A000B0F1807F01D301200FE0681E4FF0E021E3
:1023B00048610F214FF0FF3003F034F800204FF058
:1023C000E021886107200861002070BD10B5044637
:1023D0000CB9012010BDA06900B100E000BF94F865
:1023E000410028B9002084F84000204600F02AF877
:1023F000242084F841002068C06820F4005021683F
:10240000C860204600F0E4FC2068006920F4904099
:10241000216808612068406920F02A00216848612D
:102420002068C06840F400502168C86000206064E3
:10243000202084F8410084F842000020606300BF3F
:10244000C8E7000010B586B00446142101A8FDF7C6
:10245000B7FE1849206888422AD100BF1648006894
:1024600040F48040144908600846006800F4804049
:10247000009000BF00BF00BF081F006840F00100CF
:10248000091F08600846006800F00100009000BFC6
:1024900000BF4FF4C0600190022002900020039022
:1024A000032004900720059001A90448FEF7B4FA20
:1024B00006B010BD00380140203802400000024044
:1024C0002DE9F84F04460E46174699464FF0000A8C
:1024D00094F8410020284AD106B117B90120BDE87F
:1024E000F88F00206064212084F84100FEF784FB0F
:1024F0008246A784E784A068B0F5805F04D1206994
:1025000010B90025B04602E035464FF000081BE048
:102510005346002280212046CDF8009000F030FD87
:1025200008B10320DBE745B9B8F80000C0F30800A4
:102530002168486008F1020803E0287821684860B3
:102540006D1CE08C401EE084E08C0028E0D15346F6
:10255000002240212046CDF8009000F011FD08B186
:102560000320BCE7202084F841000020B7E70220C8
:10257000B5E700BFFEE730B50B46002100BF16E00F
:102580000A24B4EB107F05D9302404EB107403F84F
:10259000114005E0412404EB10740A3C03F811409B
:1025A000000100254C00641C1D554C1CE1B29142F9
:1025B000E6DB30BD10B5FEF7C9F9002010BD000004
:1025C0007FB506460024002003904FF4C8740090A5
:1025D00006480190029403A96846FEF76FF9054684
:1025E00015B1022004B070BD0020FBE700700008A8
:1025F00030B505463223322441B1012905D153704B
:10260000180290700020D07006E000BF54702002C5
:1026100090700020D07000BF00BF002030BD10B50A
:10262000FEF7C8F9002010BD30B50346144600225D
:102630001D4600BF03E015F8010B8854521CA2424E
:10264000F9D3084630BD2DE9F04105460E46174640
:10265000002400BF0FE02A5931190220FEF780F94B
:1026600030B928593159884204D00220BDE8F081A0
:102670000120FBE7241DBC42EDD30020F6E700005B
:1026800000B587B0142102A8FDF79AFD00BF2148CC
:10269000006840F004001F4908600846006800F028
:1026A0000400019000BF00BF00BF0846006840F072
:1026B000200008600846006800F02000019000BF7C
:1026C00000BF00BF0846006840F0010008600846EF
:1026D000006800F00100019000BF00BF002201214E
:1026E0000D48FEF783FA4FF400500290002003904B
:1026F0000120049002A90948FEF78EF901200290FA
:10270000039000200490059002A90348FEF784F985
:1027100007B000BD1C380240000002400008024023
:1027200010B50B480B4908604FF4E13048600021B8
:1027300008488160C16001610C2141610021816113
:10274000C161FFF743FE08B1FDF7EAFF10BD0000CD
:1027500000380140E800002010B500220D490E4865
:1027600001F0AAF808B1FDF7DBFF0C490A4801F0B7
:1027700016FB08B1FDF7D4FF0949074800F008FE31
:1027800008B1FDF7CDFF044801F0D2FB08B1FDF719
:10279000C7FF10BD00000020300100208000002095
:1027A0005000002000BFFEE700BFFEE72DE9F05F0C
:1027B00005466AE22868B0F844A00AF00F07002F27
:1027C0007DD10AF01000B0BB00BF2968098848F627
:1027D0000F7201EA020040F400412A68118000BF34
:1027E00005F128042868B0F85010207801EBC000EB
:1027F000801C296801F5806131F81000C0F30900E0
:10280000E061E16960690844606100212846FEF7E3
:1028100005FB95F824000028CBD0A0690028C8D17A
:1028200095F8240040F080002968A1F84C000020B1
:1028300085F8240029E2FFE705F5B47428680688C6
:1028400006F4006030B32868B0F85010207801EB2F
:10285000C000801D296801F5806131F81000C0F3C7
:102860000900E061A18B8BB2E28805F52C71286824
:1028700002F072FD00BF2968098840F68F7201EAF4
:10288000020040F080012A68118000BF2846FFF74F
:10289000BEF8FAE106F4004000288AD000BF29689B
:1028A000098840F68F7201EA020040F080012A6830
:1028B000118000BF2868B0F85010207800E07AE05E
:1028C00001EBC000801D296801F5806131F810001E
:1028D000C0F30900E061E06990B1606980B1B4F8CB
:1028E0001CC01FFA8CF3E2886169286802F034FD8D
:1028F000E16960690844606100212846FEF79EFA9C
:102900002868068806F40060002893D106F4405039
:10291000B0F5405F8ED000BF2A682968B1F850102A
:102920000A4402F20C41084600BF0388C3F30903BE
:10293000038023693E2B12D900BF23695909237CE8
:1029400003F01F0303B9491E03884FF4004C4CEAFF
:10295000812C1FFA8CFC43EA0C03038017E02369E7
:1029600023B9038843F40043038010E000BF2369C8
:102970005908237C03F0010303B1491C03884FF677
:10298000FF7C0CEA812C43EA0C03038000BF00BFEC
:1029900000BF00BF296809884BF68F7201EA020068
:1029A00080F4805080F4005040F4004141F08001F8
:1029B0002A68118069E17900286830F8116006F40E
:1029C000004000286FD000BF7A00296831F812104B
:1029D00040F68F7201EA020040F080017B002A6815
:1029E00022F8131000BF07EB870105F5B47000EB68
:1029F000C104207BB8B92868B0F85010207801EBEA
:102A0000C000801D296801F5806131F81000C0F315
:102A10000908B8F1000F5ED0E28861694346286872
:102A200002F09AFC57E0E078022806D132462146AF
:102A30002846FEF751FA80464DE000BF00BF2278DD
:102A40005200296831F8121048F68F7201EA02002C
:102A500040F4004141F0C00123785B002A6822F86D
:102A6000131000BF00BF21784900286830F811001A
:102A700000F48040C0B12868B0F85010207801EB15
:102A8000C000801C296801F5806131F81000C0F396
:102A90000908B8F1000F1ED02289616943462868F1
:102AA00002F05AFC17E02AE02868B0F850102078AD
:102AB00001EBC000801D296801F5806131F810002C
:102AC000C0F30908B8F1000F05D062896169434677
:102AD000286802F041FCE0694044E06160694044DC
:102AE0006061A06910B12069404504D92178284669
:102AF000FEF7A4F903E02146286801F0EFFE06F096
:102B00008000002876D007EB870105F1280000EB54
:102B1000C10400BF7A00296831F8121048F60F721C
:102B200001EA020040F400417B002A6822F81310F9
:102B300000BFE078012876D10020A061207B00282A
:102B40006BD006F0400080B300BF6078C0B900BF12
:102B500029682A68B2F8502011442278022303EB36
:102B6000C20201F5806303EB420000BF0288C2F39A
:102B700009020280028842F40042028000BF13E092
:102B80006078012810D100BF28682A68B2F8502068
:102B900010442278022303EBC20200F5806303EBAA
:102BA000420100220A8000BF37E0FFE700BF29682A
:102BB000607800BB00BF2B68D5F800C0BCF850C0DF
:102BC000634494F800C04FF0060B0BEBCC0C03F5FC
:102BD000806B0BEB4C0000BFB0F800C0CCF3090CCD
:102BE000A0F800C0B0F800C04CF4004CA0F800C041
:102BF00000BF11E049E0607801280DD12868B0F8E5
:102C0000500001442078062303EBC00001F58063E7
:102C100003EB40020020108000BF21782846FEF719
:102C2000FDF832E0FFE706F4807048BB2868B0F892
:102C30005010207801EBC000801C296801F58061EC
:102C400031F81000C0F30909A069484504D9A0690A
:102C5000A0EB0900A06101E00020A061A06920B9FB
:102C600021782846FEF7DAF80FE060694844606191
:102C7000E0694844E0612146286801F02FFE04E045
:102C8000324621462846FEF7D3F92868B0F84400BA
:102C900000F4004000287FF48DADBDE8F09F704740
:102CA00018B5034600222548006800F0F00050BB2C
:102CB00022481C30006800F0805020B12048006895
:102CC00000F4C05118E000BF1C481C30006840F000
:102CD00080501A4C1C3420602046006800F0805060
:102CE000009000BF00BF1648006800F4C0512046A5
:102CF000006820F080502060B1F5C05F03D1B3F5CB
:102D0000404F00D1012200BF012A05D10D480068C3
:102D100040F004000B4C20600A48006820F00100DD
:102D20001043084C206000BF2046006800F00100FE
:102D3000904201D0012018BD0020FCE70838024075
:102D400000700040003C0240704710B5FDF75AFF8C
:102D500010BD000000B593B0342106A8FDF730FA8D
:102D6000142101A8FDF72CFA1748006820F4C05080
:102D700040F4006014490860032006900120079089
:102D8000099010200A9002200F90C10310914FF477
:102D9000402111914105129106A8FFF715F808B1DD
:102DA000FDF7BEFC0F20019001200290002003904F
:102DB00004900590002101A8FEF780FE08B1FDF700
:102DC000AFFC13B000BD0000007000407047000071
:102DD00070B504462168096921F44051E268114345
:102DE000226811612269A168114362691143E26995
:102DF00041EA02052168C96849F20C6291432943FE
:102E00002268D1602168496921F44071A2691143A7
:102E100022685161594A2168914202D1FEF774FF3C
:102E200001E0FEF761FFE169B1F5004F53D100EB1E
:102E3000C00101EB001162685200B1FBF2F16422A3
:102E4000B1FBF2F10A0100EBC00101EB0011636874
:102E50005B00B1FBF3F100EBC00303EB001366680A
:102E60007600B3FBF6F36426B3FBF6F303EBC3067D
:102E700006EB0313A1EB8301322303EBC1016423AF
:102E8000B1FBF3F101F0F80102EB410200EBC001EC
:102E900001EB001163685B00B1FBF3F100EBC003D1
:102EA00003EB001366687600B3FBF6F36426B3FB0E
:102EB000F6F303EBC30606EB0313A1EB8301322306
:102EC00003EBC1016423B1FBF3F101F007011144ED
:102ED0002268916051E000EBC00101EB00116268D3
:102EE0009200B1FBF2F100EBC00202EB001263684A
:102EF0009B00B2FBF3F26423B2FBF3F202EBC203DA
:102F000003EB0212A1EB8201322202EB01116422D7
:102F1000B1FBF2F101F0F00100EBC00202EB001294
:102F200063689B00B2FBF3F26423B2FBF3F201EBA4
:102F3000021200EBC00101EB001163689B00B1FBC2
:102F4000F3F100EBC00303EB00136668B600B3FBBC
:102F5000F6F36426B3FBF6F303EBC30606EB0313A9
:102F6000A1EB8301322303EB01116423B1FBF3F1E5
:102F700001F00F0111442268916070BD00380140DA
:102F80002DE9F04104460D4617469846069E34E06A
:102F9000701C88B32EB1FDF72FFEA0EB0800B042E5
:102FA0002BD900BF00BF21680C3151E8001F21F46C
:102FB000D07021680C3141E80002002AF3D100BF33
:102FC00000BF00BF2168143151E8001F21F001004B
:102FD0002168143141E80002002AF3D100BF20200B
:102FE00084F8410084F8420000BF002084F84000CB
:102FF00000BF0320BDE8F081FFE72068006828409B
:10300000A84201D1012000E00020B842C0D0002039
:10301000F0E770B504460D46D4F88C0229464268A4
:1030200020469047002070BD70B504460D4694F8C8
:103030007402012804D0022803D003280CD101E037
:1030400000BF00BF6888012805D10020C4F87C02B9
:10305000204600F05EF804E02946204600F01BF808
:1030600000BF00BF70BD70B506460C4615462B4626
:1030700022460021304600F07FFD002070BD70B573
:1030800006460C4615462B4622460021304600F0E7
:103090005AFE002070BD70B504460D4680212046C2
:1030A00000F016FE0021204600F012FE70BD70B543
:1030B00004460E4615460320C4F86C024FF4A47073
:1030C0000551001D05512B4632460021204600F0D7
:1030D00053FD002070BD10B504460520C4F86C02F5
:1030E00000231A461946204600F046FD002010BD78
:1030F00070B504460E4615460220C4F86C02E56120
:1031000025622B4632460021204600F01CFE00209E
:1031100070BD10B504460420C4F86C0200231A46A2
:103120001946204600F00FFE002010BD0246002088
:10313000704702460020704770B504460E46D4F82A
:1031400090520020C5F80004C5F80404022085F858
:103150001804002085F81004022140F21440415563
:10316000D4F8900250B1D4F8941288688047D4F80B
:10317000900201F09DF80020C4F89002002070BD7C
:103180000146002070477CB50546D5F8904294F87A
:103190001804042876D1D4F8000400285CD12078E3
:1031A00018B9D4F8040401286ED0207821281CD145
:1031B000D4F80404052818D16078C4F80804A1786C
:1031C000D4F8080400EB0120C4F80804E178D4F82E
:1031D000080400EB0140C4F808042179D4F808047D
:1031E00000EB0160C4F808044EE02078412824D1A7
:1031F000D4F80404052820D16078C4F80804A17824
:10320000D4F8080400EB0120C4F80804E178D4F8ED
:10321000080400EB0140C4F808042179D4F808043C
:1032200000EB0160C4F80804D4F80804D5F894222F
:10323000D168884738B302207CBD0020C4F804045C
:10324000C4F800048DF800000120ADF806006946BE
:103250002846FFF720FF17E0D4F80004012813D90F
:10326000D4F80004801ED4F8081401EB8026D4F8AA
:103270000424D5F89402314603692046984710B1DA
:103280000220D9E716E0FFE70020C4F80404C4F8E0
:103290000004032084F81804002140F21140015575
:1032A000401C0155401C015594F81814401C015550
:1032B0000020C1E794F81804072802D12846FDF73A
:1032C0003FF90020B8E7000001461B2008800148B4
:1032D00070470000BC00002001460A200880014819
:1032E00070470000D800002070B504460D46164611
:1032F000062D08D8D4F8941232460868034900F025
:103300009CFA024870BD0020FCE70000F00C002091
:1033100070B505460E4640F21C4000F0CBFFC5F8E4
:103320009002D5F8900208B9022070BDD5F89042FD
:10333000002004F58064E0601148A0600020206057
:10334000606060760220207600202074A4F58064FE
:10335000002140F211400155401C0155401C01550F
:103360000221401C01550021401C0155D5F8941242
:103370004868804708B10220D7E70020D5E7000061
:103380000070000802460020704702460020704787
:10339000024609B1C2F8941200207047014600208D
:1033A000704700002DE9F84305460C460027B84653
:1033B000002000908146D5F89062207800F06000EF
:1033C00090B3202870D16078072824D2DFE800F07D
:1033D0001E04090E12161A0021462846FCF7DAFFD1
:1033E00020E021462846FDF701F91BE02846FDF7BD
:1033F00027F817E02846FCF753FF13E02846FDF7AF
:1034000013F80FE02846FCF719FF0BE02146284689
:10341000FCF77AFF06E021462846FFF73CFE4FF016
:10342000020900BF00BF68E0FFE7607830B10628FE
:1034300015D00A2826D00B284FD136E095F8740213
:10344000032805D1022269462846FFF751FE05E010
:1034500021462846FFF71FFE4FF0020944E060882E
:103460002121B1EB202F07D1264FE088092801D96F
:10347000092000E0E0888046424639462846FFF7AA
:1034800037FE31E095F87402032806D1012206F2D6
:103490000C412846FFF72CFE05E021462846FFF7A1
:1034A000FAFD4FF002091FE020E0A07870B995F80E
:1034B0007402032803D1A078C6F80C040CE021465E
:1034C0002846FFF7E8FD4FF0020905E021462846AF
:1034D000FFF7E1FD4FF0020906E021462846FFF71D
:1034E000DAFD4FF0020900BF00BF06E02146284682
:1034F000FFF7D1FD4FF0020900BF00BF4846BDE80D
:10350000F8830000CE00002070B505460C462DB9AA
:103510002246064906A000F090F904E0224603493D
:1035200003A000F08AF9014870BD0000CC03002020
:1035300044465520436F6E666967000002461220BC
:1035400008800148704700001C00002070B5054647
:103550000C462DB92246064906A000F06EF904E09B
:103560002246034903A000F068F9014870BD00003D
:10357000CC03002044465520496E74657266616331
:1035800065000000024604200880014870470000E2
:103590003000002070B505460C462246024903A0C3
:1035A00000F04BF9004870BDCC0300204D6164650C
:1035B0004279566563616E670000000070B505468C
:1035C0000C462DB92246064906A000F036F904E063
:1035D0002246034903A000F030F9014870BD000005
:1035E000CC03002053544D333220446F776E4C6F20
:1035F0006164204669726D776172652055706461FF
:103600007465000070B505460C461A202080FDF751
:1036100029F9014870BD00003400002070B504464F
:103620000D46E888012804D029462046FFF733FDDF
:103630001EE094F87402012804D0022803D0032865
:1036400010D109E000BF0020A060012204F10801B0
:103650002046FFF74DFD0AE00122211D2046FFF71D
:1036600047FD04E029462046FFF715FD00BF00BFD7
:1036700070BDF8B504460E4670880012082872D254
:10368000DFE800F082040C2082826372207CD4F890
:1036900088120A686946904705467AE0207C40B95E
:1036A000D4F88C02816A6846884705460221697011
:1036B00007E0D4F88C02C16A6846884705460221B3
:1036C000697066E0B078062834D2DFE800F0030BBA
:1036D000131B232B207CD4F888124A686946904734
:1036E000054630E0207CD4F888128A686946904705
:1036F000054628E0207CD4F88812CA6869469047BD
:10370000054620E0207CD4F888120A696946904773
:10371000054618E0207CD4F888124A69694690472B
:10372000054610E0207CD4F888128A6969469047E3
:10373000054608E0B178D4F88C026A46836B2046CF
:103740009847054600BF00BF23E0207C30B9D4F87D
:103750008C02416B6846884705461AE03146204690
:10376000FFF799FCF8BD0FE0207C40B9D4F88C023B
:10377000016B6846884705460721697009E03146B4
:103780002046FFF788FCEDE731462046FFF783FC33
:10379000E8E700BFBDF8000088B1F08878B1F08894
:1037A000BDF80010884202DDBDF8000000E0F0889E
:1037B0000090BDF8002029462046FFF799FCF088CC
:1037C00010B92046FFF7A5FC00BFCBE7014600205B
:1037D00002E0421CD0B2491C0A78002AF9D1704795
:1037E00070B504460D4694F87402012804D00228EE
:1037F00003D003281AD101E000BF00BFE8880228E7
:1038000004D029462046FFF746FC14E00120E06082
:10381000D4F87C0218B1E06840F00200E0600222B7
:1038200004F10C012046FFF763FC04E02946204622
:10383000FFF731FC00BF00BF70BD2DE9F041044629
:103840000D4617460026FCB12046FFF7BFFF0221B8
:1038500001EB400038803A783046711CCEB22A54D1
:1038600003223046711CCEB22A540AE014F8012B10
:103870003046711CCEB22A5400223046711CCEB2A2
:103880002A5420780028F1D1BDE8F08101460020BB
:1038900031B1012906D0022906D0032908D105E05B
:1038A000002007E0022005E0012003E0022001E003
:1038B000022000BF00BF704770B504460D46164693
:1038C0000CB9022070BDD4F88C0210B10020C4F8ED
:1038D0008C020DB1C4F88852012084F8740226705D
:1038E000204600F0E9F80020ECE72DE9F04104461D
:1038F0000D46002600272946D4F89802FDF7AEFAB7
:1039000006463046FFF7C2FF07463846BDE8F0815D
:103910002DE9F04104460E461746002E64D104F10D
:103920001405D4F86C02022848D1D5E90301884275
:1039300010D9D5E90301401AE860A88982B2394656
:103940002046FFF79CFB00231A461946204600F04C
:1039500013F93EE02969A868B0FBF1F201FB1200FF
:10396000B8B92969A868884213D3A868D4F8701236
:1039700088420ED2002211462046FFF780FB00202D
:10398000C4F8700200231A461946204600F0F4F8E5
:103990001FE0D4F88C02C06840B194F87402032888
:1039A00004D1D4F88C02C168204688478021204683
:1039B00000F08EF92046FFF78EFB0AE0D4F86C0287
:1039C000042802D0D4F86C0218B98021204600F0F7
:1039D0007FF994F87802012818D1204600F0E7F921
:1039E000002084F8780211E0D4F88C02406950B1CC
:1039F00094F87402032806D1D4F88C023146426947
:103A00002046904702E00220BDE8F0810020FBE75D
:103A10002DE9F04104460E461746BEBB04F5A075DD
:103A2000D4F86C02032825D1D5E90301884210D9C6
:103A3000D5E90301401AE860D5E90301884201D2C3
:103A4000E86800E0286982B239462046FFF70BFBA0
:103A50002FE0D4F88C02006940B194F87402032876
:103A600004D1D4F88C020169204688472046FFF72C
:103A700050FB1EE0D4F86C0205281AD10020C4F8CF
:103A80006C020021204600F023F912E0FFE7D4F891
:103A90008C02806950B194F87402032806D1D4F8DE
:103AA0008C02314682692046904702E00220BDE840
:103AB000F0810020FBE7000010B504461248C0F872
:103AC000E842C4F8980211480F490860082048608D
:103AD00002210D4881600161002181610162FDF7D1
:103AE000B1FE08B1FCF71CFE182300221146D4F8E1
:103AF0009802FDF75FF9582300228021D4F898023C
:103B0000FDF758F9002010BDCC050020005C0040F6
:103B100010B50246D2F8983201F08000802809D111
:103B200001F07F0000EB800403F1280000EBC400EB
:103B3000807810BD01F07F0000EB800403F5B470C5
:103B400000EBC4008078F4E72DE9F04704460F4607
:103B500015461E464FF00008C1462B4632463946F0
:103B6000D4F89802FDF703FD80464046FFF78EFE2D
:103B700081464846BDE8F0872DE9F04704460D46EA
:103B800016461F464FF00008C1463B4632462946BE
:103B9000D4F89802FDF72DFD80464046FFF776FEEB
:103BA00081464846BDE8F08710B504464023002210
:103BB00011462046FFF7C8FF01214FF4A2700151C2
:103BC00040214FF4A870015140230022802120465B
:103BD000FFF7BAFF0121A16140216162012084F851
:103BE00074020020C4F86C026060C4F87C02D4F84F
:103BF000900228B12179D4F88C024268204690477F
:103C0000002010BD014691F8750281F87402002071
:103C1000704710B5044694F87402032808D1D4F80C
:103C20008C02C06920B1D4F88C02C1692046884753
:103C3000002010BD02461174002070472DE9F041AC
:103C400004460D46002600272946D4F89802FDF7C1
:103C5000C3FE06463046FFF719FE07463846BDE864
:103C6000F08170B504460D46294604F5207000F039
:103C700082F80120C4F86C0240F28620005BC4F890
:103C8000700294F8800200F01F0020B1012808D0D3
:103C9000022812D10BE004F52071204600F04FF904
:103CA00013E004F52071204600F0B6FA0DE004F5AB
:103CB0002071204600F094F907E094F8800200F0AB
:103CC0008001204600F004F800BF00BF002070BD56
:103CD0002DE9F04104460D46002600272946D4F878
:103CE0009802FDF7A4FC06463046FFF7CFFD0746D5
:103CF0003846BDE8F08170B5044600250026D4F8AA
:103D00009802FDF78DFE05462846FFF7BFFD0646E3
:103D1000304670BD70B5044600250026D4F89802E0
:103D2000FDF79CFE05462846FFF7B0FD06463046E7
:103D300070BD014691F8740281F87502042081F883
:103D40007402002070472DE9F04704460D461646E0
:103D50001F464FF00008C1463B4632462946D4F87C
:103D60009802FDF7A0FC80464046FFF78FFD814694
:103D70004846BDE8F0870A7802704A7842708B782E
:103D8000CA7803EB022242800B794A7903EB0222C4
:103D900082808B79CA7903EB0222C2807047024687
:103DA000002011B1C2F88C1200E0022070470146D9
:103DB0000020704770B504460D46A88810BBE888FF
:103DC00000BB688880281DD2A87800F07F0694F890
:103DD0007402032804D129462046FFF75CF915E058
:103DE00084F8766231462046FFF728FF2046FFF729
:103DF00090F91EB1022084F8740207E0012084F8D3
:103E0000740203E029462046FFF745F970BD70B5FE
:103E100004460D460226D4F88C0238B1D4F88C0240
:103E2000294602682046904700B90026304670BDFA
:103E300070B504460D46A8783649087008460078E3
:103E4000012804D929462046FFF725F960E094F8B7
:103E50007402022802D003284FD11CE02D480078BC
:103E6000A8B12C4800786060032084F874022948C7
:103E700001782046FFF7CBFF022804D129462046CF
:103E8000FFF709F970BD2046FFF743F902E020462D
:103E9000FFF73FF93BE01F48007870B9022084F833
:103EA00074021C48007860601A4801782046FFF7C9
:103EB000B0F82046FFF72DF91EE016490978606832
:103EC000884216D021792046FFF7A3F811480078E0
:103ED0006060104801782046FFF799FF022804D15E
:103EE00029462046FFF7D7F8CCE72046FFF711F91F
:103EF00002E02046FFF70DF909E029462046FFF7CA
:103F0000CAF8044801782046FFF783F800BF00BFD5
:103F100000BFB7E77C00002070B505460C466088FE
:103F2000012804D1C5F87C022846FFF7F2F870BDDD
:103F300010B504462046FFF7DEFE002010BD70B528
:103F400005460C460026207800F0600060B120286D
:103F500002D040283CD100E000BFD5F88C022146B9
:103F600082682846904738E060780A2829D2DFE83E
:103F700000F01923281E280A0528140F2146284678
:103F8000FFF777FB22E021462846FFF713FF1DE0ED
:103F900021462846FFF74CFF18E021462846FFF748
:103FA0003DFB13E021462846FFF71AFC0EE02146B0
:103FB0002846FFF7B1FF09E021462846FFF734F80D
:103FC00004E021462846FFF766F800BF00BF04E082
:103FD00021462846FFF75FF800BF00BF304670BD9E
:103FE0002DE9F04105460E464FF00008347930784F
:103FF00000F0600060B1202802D0402871D100E0BC
:1040000000BFD5F88C02314682682846904700E10F
:10401000307800F06000202809D1D5F88C023146B4
:1040200082682846904780464046BDE8F081707817
:1040300000285ED001282FD0032876D195F874028D
:10404000022802D0032820D110E054B1802C08D0DF
:1040500021462846FFF73CFE80212846FFF738FE20
:1040600003E031462846FFF716F813E0708840B9A0
:104070003CB1802C05D0F08818B921462846FFF7BE
:1040800027FE2846FFF745F804E031462846FFF7AB
:1040900002F800BF00BFB5E095F87402022802D014
:1040A00003281FD110E054B1802C08D021462846A7
:1040B000FFF70EFE80212846FFF70AFE03E0314697
:1040C0002846FEF7E8FF12E0708848B904F07F0048
:1040D00018B121462846FFF708FC2846FFF719F8D3
:1040E00005E091E031462846FEF7D5FF00BF00BF4E
:1040F00088E095F87402022802D0032876D126E0E1
:1041000034B1802C04D031462846FEF7C4FF72E05B
:1041100004F08000802809D104F07F0000EB8001CA
:1041200005F1140000EB810008E066E004F07F0078
:1041300000EB800105F5A07000EB81000746002030
:104140003860022239462846FEF7D2FF53E004F0D9
:10415000800080280ED104F00F0000EB800105F1F3
:10416000140000EB8100406898B931462846FEF7FC
:1041700092FF40E004F00F0000EB800105F5A07015
:1041800000EB8100406820B931462846FEF783FFE6
:1041900031E004F08000802808D104F07F0000EBBB
:1041A000800105F1140000EB810007E004F07F00BE
:1041B00000EB800105F5A07000EB810007460CB113
:1041C000802C02D10020386009E021462846FFF704
:1041D0009FFC10B10120386001E00020386002220D
:1041E00039462846FEF784FF05E0FFE731462846BA
:1041F000FEF751FF00BF00BF04E031462846FEF73E
:104200004AFF00BF00BF04E031462846FEF743FFE7
:1042100000BF00BF404608E770B505460C460026C3
:10422000207800F0600030B1202802D040282AD148
:1042300000E000BF00BF95F87402012804D00228F6
:1042400003D0032818D101E000BF00BF2079012866
:104250000DD8D5F88C02214682682846904706463C
:10426000E08840B93EB92846FEF753FF03E02146F7
:104270002846FEF710FF04E021462846FEF70BFF14
:1042800000BF00BF04E021462846FEF704FF00BF40
:1042900000BF002070BD10B504462179D4F88C020F
:1042A0004268204690472046FFF734FD002010BDAD
:1042B000704700000146014870470000B808002020
:1042C000F0B5024600260878400032F8100048F6A3
:1042D0008F1400EA0403C87830B101280CD00228FA
:1042E00005D003280BD104E043F4007309E000BFBC
:1042F00007E043F4C06304E043F4806301E0012677
:1043000000BF00BF43F4004040F080000C78640020
:1043100022F8140000BF0C78640032F8144048F60C
:104320008F752C400D7844EA050040F4004444F0B9
:1043300080040D786D0022F8154000BF087B00282E
:104340007ED14878002852D000BF1046B2F85050B5
:1043500028440D7800F5806707EB0514CD886D10B3
:104360006D00258000BF00BF0C78640032F8140097
:1043700000F040048CB100BF0D786D0032F815508C
:1043800048F68F7705EA070444F4004545F0C00578
:104390000F787F0022F8175000BF00BFC8780128AF
:1043A00013D000BF0C78640032F8144048F6BF7593
:1043B00004EA050080F0200040F4004444F080044A
:1043C0000D786D0022F81540D0E100BF0C78640034
:1043D00032F8144048F6BF7504EA050040F4004482
:1043E00044F080040D786D0022F81540BEE100BF56
:1043F0001046B2F8505028440D78042707EBC50545
:1044000000F5806707EB4504CD886D106D002580B1
:1044100000BF00BF1546B2F8504025440C7806276F
:1044200007EBC40405F5806707EB4404204600BF92
:104430000788C7F3090707800F693E2F14D900E0EA
:1044400073E000BF0F697C090F7C07F01F0707B9F5
:10445000641E07884FF4004C4CEA842C1FFA8CFC35
:1044600047EA0C07078017E00F6927B9078847F468
:104470000047078010E000BF0F697C080F7C07F041
:10448000010707B1641C07884FF6FF7C0CEA842CF7
:1044900047EA0C07078000BF00BF00BF00BF0C78D1
:1044A000640032F8140000F480448CB100BF0D7831
:1044B0006D0032F8155048F68F7705EA070444F48A
:1044C000004545F481450F787F0022F8175000BF62
:1044D00000BF0878A8B900BF0C78640032F8144017
:1044E0004BF68F7504EA050080F4805080F400508C
:1044F00040F4004444F080040D786D0022F815402B
:1045000034E100BF0C78640032F814404BF68F752C
:1045100004EA050080F4005040F4004444F08004B4
:104520000D786D0022F8154020E1C878022811D1DD
:1045300000BF0C78640032F8144048F68F7504EA26
:10454000050040F4004444F4C0740D786D0022F876
:10455000154011E000BF0C78640032F8144048F6B2
:104560008F6504EA050040F4004444F080040D78AF
:104570006D0022F8154000BF00BF00BF00BF10460D
:10458000B2F8505028440D7800F5806707EB051409
:104590000D896D106D00258000BF00BF00BF00BFFA
:1045A0001046B2F8505028440D78042707EBC50593
:1045B00000F5806707EB45044D896D106D0025807F
:1045C00000BF00BF00BF4878E8BB00BF0C786400A4
:1045D00032F8140000F480448CB100BF0D786D00F7
:1045E00032F8155048F68F7705EA070444F4004581
:1045F00045F481450F787F0022F8175000BF00BFB7
:1046000000BF0C78640032F8140000F040048CB154
:1046100000BF0D786D0032F8155048F68F7705EA27
:10462000070444F4004545F0C0050F787F0022F8E8
:10463000175000BF00BF00BF0C78640032F8144070
:104640004BF68F7500E020E004EA050080F480500E
:1046500080F4005040F4004444F080040D786D0074
:1046600022F8154000BF00BF0C78640032F81440F7
:1046700048F6BF7504EA050040F4004444F08004A5
:104680000D786D0022F8154070E000BF0C786400D2
:1046900032F8140000F480448CB100BF0D786D0036
:1046A00032F8155048F68F7705EA070444F40045C0
:1046B00045F481450F787F0022F8175000BF00BFF6
:1046C00000BF0C78640032F8140000F040048CB194
:1046D00000BF0D786D0032F8155048F68F7705EA67
:1046E000070444F4004545F0C0050F787F0022F828
:1046F000175000BF00BFC878012813D000BF0C7846
:10470000640032F8144048F6BF7504EA050080F0F2
:10471000200040F4004444F080040D786D0022F83D
:10472000154011E000BF0C78640032F8144048F6E0
:10473000BF7504EA050040F4004444F080040D789D
:104740006D0022F8154000BF00BF0C78640032F8FD
:1047500014404BF68F7504EA050040F4004444F021
:1047600080040D786D0022F8154000BF3046F0BD82
:1047700001460020704701460020704710B50446EE
:10478000012024F8400F00202080A0802082403C9F
:1047900010BD01464FF43F42B1F840009043A1F8EC
:1047A00040000020704730B50246087B002865D1E4
:1047B000487888B300BF0B785B0032F8130000F034
:1047C00040038BB100BF0C78640032F8144048F607
:1047D0008F7504EA050343F4004444F0C0040D78E7
:1047E0006D0022F8154000BF00BFC878012845D0F1
:1047F00000BF0B785B0032F8133048F6BF7403EA51
:10480000040080F0200040F4004343F080030C7863
:10481000640022F8143031E0FFE700BF0B785B0042
:1048200032F8130000F480438BB100BF0C786400B1
:1048300032F8144048F68F7504EA050343F4004447
:1048400044F481440D786D0022F8154000BF00BF8C
:1048500000BF0B785B0032F813304BF68F7403EA1D
:10486000040080F4805080F4005040F4004343F092
:1048700080030C78640022F8143000BF002030BDA3
:1048800010B50246487898B100BF0B785B0032F84B
:10489000133048F6BF7403EA040080F0100040F4BF
:1048A000004343F080030C78640022F8143013E0D6
:1048B00000BF0B785B0032F813304BF68F7403EABD
:1048C000040080F4805040F4004343F080030C78EF
:1048D000640022F8143000BF002010BD2DE9F0471D
:1048E00006460C466078012872D12169A069884289
:1048F00001D9256900E0A569207BA0B9ABB2E288A7
:104900003046616900F054FD00BF3046B6F85020D3
:1049100010442278022303EBC20200F5806303EB0C
:1049200042010D80C1E2E078022870D12169206A3D
:1049300088426DD900BF2178490036F8111048F639
:104940008F7201EA020040F4004141F4C071227804
:10495000520026F8121000BF206A401B2062207807
:10496000400036F8100000F04000002874D000BF6E
:104970003346607868BB00BF3246B6F850100A4430
:1049800021784FF0060909EBC10102F5806909EBB6
:104990004101084600BFB0F80090C9F30909A0F82A
:1049A00000903E2D16D900BF690905F01F09B9F125
:1049B000000F00D1491EB0F800904FF4004A4AEAB7
:1049C000812A1FFA8AFA49EA0A09A0F800901CE035
:1049D00081E21EE035B9B0F8009049F40049A0F832
:1049E000009012E000BF690805F00109B9F1000F5D
:1049F00000D0491CB0F800904FF6FF7A0AEA812AED
:104A000049EA0A09A0F8009000BF00BF11E07EE16A
:104A100053E1607801280CD1B6F8500003442078A7
:104A2000062101EBC00003F5806101EB400CACF8FE
:104A3000005000BF6789ABB23A463046616900F06A
:104A4000B7FC6069284460612169206A884204D902
:104A5000206A401B206203E05EE0256A002020629D
:104A600000BF6078E0BB00BF3246B6F850100A4481
:104A70002178022303EBC10102F5806303EB4101BE
:104A8000084600BF0388C3F3090303803E2D10D9F5
:104A900000BF690905F01F0303B9491E03884FF4DD
:104AA000004C4CEA812C1FFA8CFC43EA0C03038077
:104AB00014E025B9038843F4004303800EE000BFEF
:104AC000690805F0010303B1491C03884FF6FF7C18
:104AD0000CEA812C43EA0C03038000BF00BF12E004
:104AE000FFE7607801280ED100BF3046B6F85020AD
:104AF00010442278022303EBC20200F5806303EB2B
:104B000042010D8000BF00BF2789ABB23A46304654
:104B1000616900F04DFCC8E100BF6078E0BB00BFF8
:104B20003246B6F850100A442178022303EBC10143
:104B300002F5806303EB4101084600BF0388C3F31D
:104B4000090303803E2D10D900BF690905F01F033A
:104B500003B9491E03884FF4004C4CEA812C1FFA1C
:104B60008CFC43EA0C03038014E025B9038843F46A
:104B7000004303800EE000BF690805F0010303B1A4
:104B8000491C03884FF6FF7C0CEA812C43EA0C0396
:104B9000038000BF00BF12E0FFE7607801280ED15C
:104BA00000BF3046B6F8502010442278022303EBB1
:104BB000C20200F5806303EB42010D8000BF00BF1D
:104BC0002789ABB23A463046616900F0F1FB606973
:104BD000284460612169206A884203D9206A401B09
:104BE000206202E0256A0020206200BF3346607820
:104BF000A0BB00BF3246B6F850100A4421784FF0EF
:104C0000060909EBC10102F5806909EB410108467B
:104C100000BFB0F80090C9F30909A0F800903E2D3C
:104C200014D900BF690905F01F09B9F1000F00D1BF
:104C3000491EB0F800904FF4004A4AEA812A1FFA50
:104C40008AFA49EA0A09A0F800901BE03DB9B0F8D9
:104C5000009049F40049A0F8009013E014E000BF70
:104C6000690805F00109B9F1000F00D0491CB0F83E
:104C700000904FF6FF7A0AEA812A49EA0A09A0F869
:104C8000009000BF00BF0FE0607801280CD1B6F89B
:104C9000500003442078062101EBC00003F5806139
:104CA00001EB400CACF8005000BF6789ABB23A464C
:104CB0003046616900F07CFBF7E0256A00BF21788F
:104CC000490036F8111048F68F6201EA020040F4FC
:104CD000004141F080012278520026F8121000BFF6
:104CE00000BF3046B6F8502010442278022303EB70
:104CF000C20200F5806303EB42010D8000BF2789EB
:104D0000ABB23A463046616900F052FBCDE0206A12
:104D1000401B20622078400036F8100000F0400070
:104D200080B300BF3346607868BB00BF3246B6F838
:104D300050100A4421784FF0060909EBC10102F531
:104D4000806909EB4101084600BFB0F80090C9F343
:104D50000909A0F800903E2D16D900BF690905F099
:104D60001F09B9F1000F00D1491EB0F800904FF4AF
:104D7000004A4AEA812A1FFA8AFA49EA0A09A0F88F
:104D800000901CE036E01CE035B9B0F8009049F422
:104D90000049A0F8009012E000BF690805F0010981
:104DA000B9F1000F00D0491CB0F800904FF6FF7A1F
:104DB0000AEA812A49EA0A09A0F8009000BF00BF68
:104DC0000FE0607801280CD1B6F850000344207839
:104DD000062101EBC00003F5806101EB400CACF84B
:104DE000005000BF6789ABB23A463046616900F0B7
:104DF000DFFA5AE000BF6078E0BB00BF3246B6F889
:104E000050100A442178022303EBC10102F58063AC
:104E100003EB4101084600BF0388C3F30903038085
:104E20003E2D10D900BF690905F01F0303B9491EC3
:104E300003884FF4004C4CEA812C1FFA8CFC43EAA7
:104E40000C03038014E025B9038843F40043038076
:104E50000EE000BF690805F0010303B1491C038897
:104E60004FF6FF7C0CEA812C43EA0C03038000BF61
:104E700000BF12E0FFE7607801280ED100BF304686
:104E8000B6F8502010442278022303EBC20200F54A
:104E9000806303EB42010D8000BF00BF2789ABB2E6
:104EA0003A463046616900F083FA00BF2178490034
:104EB00036F8111048F6BF7201EA020080F01000C7
:104EC00080F0200040F4004141F08001227852003F
:104ED00026F8121028E2207B88BB2169A06988424D
:104EE00004D92569A069401BA06102E0A5690020E2
:104EF000A06100BF3246B6F850100A44217806235C
:104F000003EBC10102F5806303EB4101084600BFDA
:104F10000388C3F3090303803E2D11D900BF69093B
:104F200005F01F0303B9491E03884FF4004C4CEAF7
:104F3000812C1FFA8CFC43EA0C03038015E016E079
:104F400025B9038843F4004303800EE000BF6908DD
:104F500005F0010303B1491C03884FF6FF7C0CEAFE
:104F6000812C43EA0C03038000BF00BFC6E1E07858
:104F700002287CD100BF00BF607878BB00BF3246FA
:104F8000B6F850100A442178022303EBC10102F560
:104F9000806303EB4101084600BF0388C3F30903A4
:104FA000038023693E2B12D900BF23695909237C52
:104FB00003F01F0303B9491E03884FF4004C4CEA69
:104FC000812C1FFA8CFC43EA0C03038018E0236950
:104FD0002BB9038843F40043038011E012E000BFC3
:104FE00023695908237C03F0010303B1491C03889A
:104FF0004FF6FF7C0CEA812C43EA0C03038000BFD0
:1050000000BF12E0607801280FD100BF3046B6F82B
:10501000502010442278022303EBC20200F5806383
:1050200003EB4201228A0A8000BF00BF00BF334663
:105030006078B0BB00BF3246B6F850100A44217801
:105040004FF0060909EBC10102F5806909EB410146
:10505000084600BFB0F80090C9F30909A0F8009015
:10506000D4F81090B9F13E0F1CD900BF00E07BE0EE
:10507000D4F810904FEA591194F8109009F01F09D4
:10508000B9F1000F00D1491EB0F800904FF4004A6A
:105090004AEA812A1FFA8AFA49EA0A09A0F8009026
:1050A00024E025E0D4F81090B9F1000F06D1B0F853
:1050B000009049F40049A0F8009017E000BFD4F830
:1050C00010904FEA590194F8109009F00109B9F1D4
:1050D000000F00D0491CB0F800904FF6FF7A0AEAA2
:1050E000812A49EA0A09A0F8009000BF00BF10E039
:1050F000607801280DD1B6F85000034420780621CD
:1051000001EBC00003F5806101EB400C208AACF894
:10511000000000BF00BFE069002824D020784000D4
:1051200036F8108008F4804010B108F0400038B91B
:1051300008F48040002816D108F04000002812D161
:1051400000BF00BF2178490036F8111048F68F7271
:1051500001EA020040F4004141F0C001227852000F
:1051600026F8121000BFC9E0E07801287ED121693D
:10517000A069884204D92569A069401BA06102E0AA
:10518000A5690020A06100BF00BF6078E0BB00BF40
:105190003246B6F850100A442178022303EBC101CD
:1051A00002F5806303EB4101084600BF0388C3F3A7
:1051B000090303803E2D10D900BF690905F01F03C4
:1051C00003B9491E03884FF4004C4CEA812C1FFAA6
:1051D0008CFC43EA0C03038014E025B9038843F4F4
:1051E000004303800EE000BF690805F0010303B12E
:1051F000491C03884FF6FF7C0CEA812C43EA0C0320
:10520000038000BF00BF12E0FFE7607801280ED1E5
:1052100000BF3046B6F8502010442278022303EB3A
:10522000C20200F5806303EB42010D8000BF00BFA6
:1052300000BF3346607870BB00BF3246B6F85010EE
:105240000A4421784FF0060909EBC10102F5806993
:1052500009EB4101084600BFB0F80090C9F3090905
:10526000A0F800903E2D17D900BF00E043E0690987
:1052700005F01F09B9F1000F00D1491EB0F80090E8
:105280004FF4004A4AEA812A1FFA8AFA49EA0A09CF
:10529000A0F800901BE01CE035B9B0F8009049F48C
:1052A0000049A0F8009012E000BF690805F001096C
:1052B000B9F1000F00D0491CB0F800904FF6FF7A0A
:1052C0000AEA812A49EA0A09A0F8009000BF00BF53
:1052D0000FE0607801280CD1B6F850000344207824
:1052E000062101EBC00003F5806101EB400CACF836
:1052F000005000BF02E00120BDE8F08700BF217828
:10530000490036F811104BF68F7201EA020080F462
:10531000805080F4005040F4004141F08001227838
:10532000520026F8121000BF0020E5E701460020D9
:10533000A1F844004FF43F42A1F84020704700001C
:1053400010B50248FCF7D2F910BD0000CC050020D2
:105350000146B1F8440070472DE9F04304460E467B
:1053600015464FEA530CA046304608F5806909EB14
:10537000450267460AE01188921C0170401C4FEA02
:10538000112980F80090401C921C7F1E002FF2D142
:1053900003F00109B9F1000F01D011880170BDE8D7
:1053A000F083024611B98020A2F84C00002070471B
:1053B0002DE9F04304460D461E4606F101094FEA69
:1053C000590CA046284608F5806909EB4203674658
:1053D0000AE0017890F8019041EA092119809B1CAC
:1053E0009B1C401C401C7F1E002FF2D1BDE8F083A7
:1053F00000BFFEE70FB4054B10B503A9044A02989D
:1054000000F034F810BC5DF814FB00002D570008C4
:10541000E400002002480068C0F30220704700004A
:105420000CED00E010B5002804DB0A07130E054A56
:10543000135406E00A07140E034A00F00F031B1F63
:10544000D45410BD00E400E018ED00E002E008C80C
:10545000121F08C1002AFAD170477047002001E0EE
:1054600001C1121F002AFBD1704700002DE9FF4F38
:105470008DB09B460F460446002606E025280BD03B
:105480005A460F999047641C761C20780028F5D165
:1054900011B03046BDE8F08F0025A846012298499A
:1054A00000E0054314F8013F203B02FA03F00842F4
:1054B000F7D120782E2817D114F8010F45F00405F4
:1054C0002A280ED06FF02F022078A0F13001092990
:1054D0000AD808EB880102EB410100EB0108641CCB
:1054E000F2E757F8048B641C20786C280DD004DC9C
:1054F0004C2812D06A2811D104E074280DD07A28E3
:105500000CD10AE045F4001507E0617845F48015F8
:10551000814202D1641C05F58015641C2278692A39
:1055200045D008DC002AB3D0582A69D0632A10D0AD
:10553000642A08D13BE0702A67D0732A13D0752AF9
:105540005CD0782A5CD010465A460F999047761C5A
:10555000D3E017F8040B8DF8000000208DF801004F
:10556000E946012003E057F8049B4FF0FF3069073C
:105570004FF0000501D40AE06D1C45450DDA854267
:10558000FADB19F805100029F6D106E06D1C8542FA
:10559000FCDB19F805100029F8D12E4404E019F8B5
:1055A000010B5A460F9990476D1EF8D2A5E00A20CC
:1055B0000021CDE90801C5F3025002280DD001CF2A
:1055C000C117031E71F100030DDA4FF0000CD0EB90
:1055D0000C006CEB01012D2308E0FF1D27F00707ED
:1055E000F7E80201EDE72B0504D52B238DF82830D1
:1055F00001233BE0EB0739D02023F7E70A2000E046
:1056000010200021CDE9080107E01020002145F01D
:105610000405CDE908014FF00808C5F3025002283F
:105620000FD001CF00214FF0000A2B071FD5702AA1
:105630000DD0DDE908C38CF0100C5CEA030C0CD033
:1056400015E0FF1D27F00707F7E80201EBE740220E
:105650008DF828204FF0010A0BE050EA010306D034
:1056600030238DF828308DF8292002239A46582AB5
:1056700004D024A20DF120090B9209E026A2F9E73B
:10568000DDE90823FAF752FD0B9B9B5C09F8013D0D
:1056900050EA0102F4D1ADEB090020300890680710
:1056A00001D44FF001080899884502DDA8EB0100FC
:1056B00000E000208046002506E00AA85A46405D2A
:1056C0000F9990476D1C761C5545F6DB04E03020A1
:1056D0005A460F999047761CB8F10001A8F10108CD
:1056E000F5DC05E019F8010B5A460F999047761C36
:1056F0000899481E08900029F4DC641CC5E60000E7
:105700000928010030313233343536373839616297
:10571000636465660000000030313233343536375B
:1057200038394142434445460000000013B50C4659
:105730004FF6FF73012269460248FCF7C1FE00984C
:105740001CBD0000E8000020FBF768FAFDF702FB33
:10575000FCF796FFFDF700F8FCF7E2FF14A0FFF757
:1057600049FE4FF400511B48FBF738FA012818D1C5
:1057700019A0FFF73FFE1D48066831461CA0FFF741
:1057800039FE1E483040B0F1005F09D11748456826
:105790002C460146086880F3088800BF72B6A0470F
:1057A00000BF17A0FFF726FEFCF7D6FF00BFFEE7FD
:1057B0000D0A2A2A2A2A2A2A205553422D444655C0
:1057C000204578616D706C65202A2A2A2A2A2A0DC4
:1057D0000A0D0A0000080240456E7465722041708F
:1057E000706C69636174696F6E0D0A000070000867
:1057F0004144443A25580D0A000000000000FE2FE5
:105800004B657920446F776E20456E746572204435
:1058100046550D0A00000000030406080C1018206D
:105820003000000000000000000102030406070829
:1058300009000000000102030400000040496E74EA
:1058400065726E616C20466C6173682020202F3079
:105850007830383030303030302F30332A303136F5
:105860004B612C30312A3031364B672C30312A30A5
:1058700036344B672C30372A3132384B672C303472
:105880002A3031364B672C30312A3036344B672C76
:1058900030372A3132384B6700000000BC5800080E
:1058A00000000020E80000004C540008A459000843
:1058B000E8000020081100005C5400083D35000895
:1058C0008535000895350008BD3500080536000807
:1058D000093500084D3500081201000200000040A3
:1058E000830411DF00020102030100000403090424
:1058F0001A0300000000000000000000000000008B
:105900000000000000000000000000003C580008FB
:105910001F260008B5250008C125000847260008F5
:1059200029260008F12500080000000010000000F2
:105930000100000068FF1F00000000001133000894
:1059400039310008A533000887310008813100088B
:105950002D310008333100089D33000885330008DD
:105960008B330008C9320008C9320008C932000868
:10597000D9320008E932000809021B00010102C007
:10598000320904000000FE01020609210BFF00009D
:10599000041A01000A060002000000400100000095
:0459A0000000000003
:04000005080000F5FA
:00000001FF
