:020000040800F2
:10700000700B002009710008F98B0008178B00082D
:10701000F58B0008157200086DB100080000000033
:10702000000000000000000000000000999100082E
:107030001972000800000000EF9000089B91000802
:1070400023710008237100082371000823710008D0
:1070500023710008237100082371000823710008C0
:1070600023710008237100082371000823710008B0
:1070700023710008237100082371000823710008A0
:107080002371000823710008237100082371000890
:10709000BDB00008237100082371000823710008A7
:1070A000000000002371000823710008237100080C
:1070B0002371000823710008237100082371000860
:1070C0002371000823710008237100082371000850
:1070D0002371000823710008237100082371000840
:1070E0002371000823710008237100082371000830
:1070F00023710008DFF80CD000F07AF80048004750
:1071000015B20008700B002006488047064800476B
:10711000FEE7FEE7FEE7FEE7FEE7FEE7FEE7FEE747
:10712000FEE7FEE71D920008F57000082DE9F05F0C
:107130000546002092469B468846064681464024E6
:107140001BE0284641464746224600F041F8534698
:107150005A46C01A914110D311461846224600F0F3
:1071600028F82D1A67EB01084F462246012000211E
:1071700000F01FF817EB00094E41201EA4F1010496
:10718000DFDC484631462A464346BDE8F09FD2B28E
:1071900001E000F8012B491EFBD270470022F6E700
:1071A00010B513460A4604461946FFF7F0FF20467D
:1071B00010BD202A04DB203A00FA02F100207047BB
:1071C0009140C2F1200320FA03F319439040704725
:1071D000202A04DB203A21FA02F00021704721FA2C
:1071E00002F3D040C2F12002914008431946704793
:1071F000064C074D06E0E06840F0010394E8070004
:1072000098471034AC42F6D3FFF778FF78B2000805
:1072100098B2000800BFFEE7704772B600BFFEE7F5
:1072200078B503460A46002100240020C4E0012668
:107230008E40156805EA0604002C72D0157905F019
:107240000305012D04D0157905F00305022D13D196
:1072500098684E000325B540A8434E00D568B54058
:1072600028439860586801258D40A8431579C5F3D7
:1072700000158D4028435860157905F00305032D4E
:1072800009D0D8684E000325B540A8434E00956844
:10729000B5402843D860157905F00305022D13D1B8
:1072A000CE0803F1200555F826004D07EE0E0F25F8
:1072B000B540A8434E07F60E1569B5402843CE08E1
:1072C00003F1200545F8260018684E000325B54057
:1072D000A843157905F003054E00B5402843186012
:1072E000556805F44035002D65D000BF354D2D683B
:1072F00045F00105334E356035462D6805F0010532
:10730000009500BF00BF304D8E0855F826008D0750
:107310002E0F0F25B540A8432C4DAB4202D10025BE
:1073200015E048E02A4DAB4201D101250FE0294D7F
:10733000AB4201D102250AE0274DAB4201D1032522
:1073400005E0264DAB4201D1042500E005258E075E
:10735000360FB54028431C4D8E0845F82600204DB9
:107360002868A043556805F4801505B120431C4DDD
:1073700028602D1D2868A043556805F4001505B147
:107380002043174D2D1D2860154D2D1F2868A04343
:10739000556805F4003505B12043114D2D1F2860B7
:1073A0002D1F2868A043556805F4803505B120439A
:1073B0000B4D083D2860491C1568CD40002D7FF419
:1073C00036AF78BD2038024008000140000002407E
:1073D0000004024000080240000C0240001002407D
:1073E000080401400AB1816101E00B048361704728
:1073F0000148006870470000000000200348006852
:1074000003490968084401490860704700000020EA
:107410000800002010B50024032000F0A3F80F207E
:1074200000F008F808B1012401E000F02FF8204630
:1074300010BD000070B50446002511480068D8B1A1
:107440000F4800684FF47A71B1FBF0F00D490968FC
:10745000B1FBF0F6304601F071FA58B9102C07D2A2
:1074600000222146501E00F03FF80748046004E067
:10747000012502E0012500E00125284670BD00003D
:10748000080000200C0000200400002008B500BF08
:107490001448006840F0004012490860084600683F
:1074A00000F00040009000BF00BF00BF081F006850
:1074B00040F00100091F08600846006800F0010064
:1074C000009000BF00BF00BF081D006840F0805062
:1074D000091D08600846006800F08050009000BF59
:1074E00000BF08BD243802402DE9F05F80460D46FC
:1074F0001646002703F044FE074639462A4633461F
:1075000001F00700C0F1070ABAF1040F02D94FF0E9
:10751000040A01E0C0F1070AD14600F1040ABAF1F9
:10752000070F02D24FF0000A01E0A0F1030AD4468F
:107530004FF0010A0AFA09FAAAF1010A0AEA020A54
:107540000AFA0CFA4FF0010B0BFA0CFBABF1010B32
:107550000BEA030B4AEA0B042146404603F018FEEF
:10756000BDE8F09F00BF00F00702064B19684FF618
:10757000FF031940044B0B4343EA0221014B1960FE
:1075800000BF70470CED00E00000FA0570B504463E
:107590000D4605EB850304F1280101EBC3014A699F
:1075A0002946D4F8E80202F003F970BD70B504462C
:1075B0000D4605EB850304F5B47101EBC3014A697F
:1075C0002946D4F8E80202F073F970BD70B504469C
:1075D0000E4606F00F006168884201D9012070BD97
:1075E00006F0800080280AD106F0070000EB800139
:1075F00004F1280000EBC1050120687009E006F0E5
:10760000070000EB800104F5B47000EBC105002019
:1076100068700020A87006F00700287000BF94F87A
:10762000A802012801D10220D9E7012084F8A8028C
:1076300000BF2946206802F07DFF00BF002084F8CB
:10764000A80200BF00BFCAE72DE9F04105460C467D
:10765000174607F48040002850D02868B0F8501032
:10766000207801EBC000801C296801F5806131F8A9
:107670001000C0F30906A069B04203D3A069801BC3
:10768000A06101E00020A061A069A8B900BF227834
:107690005200296831F812104BF68F7201EA02008D
:1076A00080F4005040F4004141F0800123785B00F9
:1076B0002A6822F8131000BF07F04000A8B100BFED
:1076C00000BF22785200296831F8121048F68F72F4
:1076D00001EA020040F4004141F0C00123785B0060
:1076E0002A6822F8131000BF00BF002E55D022894F
:1076F00061693346286803F0EDFC4EE02868B0F875
:107700005010207801EBC000801D296801F58061D0
:1077100031F81000C0F30906A069B04203D3A06994
:10772000801BA06101E00020A061A069A8B900BF92
:1077300022785200296831F812104BF68F7201EA54
:10774000020080F4005040F4004141F080012378B1
:107750005B002A6822F8131000BF07F04000A8B9A8
:1077600000BF00BF22785200296831F8121048F695
:107770008F7201EA020040F4004141F0C001237819
:107780005B002A6822F8131000BF00BF2EB1628987
:1077900061693346286803F09DFC3046BDE8F081FE
:1077A0002DE9F04705460C46904608F040000028B9
:1077B0007ED02868B0F85010207801EBC000801C03
:1077C000296801F5806131F81000C0F30907A0694C
:1077D000B84203D9A069C01BA06101E00020A061EC
:1077E000A06900287ED100BF6078C0B900BF2968B9
:1077F0002A68B2F8502011442278022303EBC20217
:1078000001F5806303EB420000BF0288C2F3090266
:107810000280028842F40042028000BF13E06078D8
:10782000012810D100BF28682A68B2F850201044FF
:107830002278022303EBC20200F5806303EB4201CE
:1078400000220A8000BF00BF00BF29686078F8B935
:1078500000BF2B68D5F800C0BCF850C0634494F852
:1078600000C04FF0060909EBCC0C03F5806909EB69
:107870004C0000BFB0F800C0CCF3090CA0F800C069
:10788000B0F800C04CF4004CA0F800C000BF12E0FB
:10789000607801280FD12868B0F8500001442078A2
:1078A000062303EBC00001F5806303EB400200E018
:1078B000B7E00020108000BF21782846FFF766FE61
:1078C00008F48040002816D000BF00BF2278520084
:1078D000296831F8121048F68F7201EA020040F46C
:1078E000004100E008E041F4814123785B002A6810
:1078F00022F8131000BFD7E108F48040A8B100BF00
:1079000000BF22785200296831F8121048F68F72B1
:1079100001EA020040F4004141F4814123785B0018
:107920002A6822F8131000BF00BF94F82400012831
:10793000E1D1606938446061E0693844E0612169FF
:10794000206A884204D32669206A801B20620BE0EB
:10795000206A20B93E46002084F8240004E000207C
:1079600084F82400266A206200BF6078E8BB00BF6C
:107970002A682968B1F850100A442178022303EBE1
:10798000C10102F5806303EB4101084600BF038893
:10799000C3F3090303803E2E10D900BF710906F01E
:1079A0001F0303B9491E03884FF4004C4CEA812C95
:1079B0001FFA8CFC43EA0C03038014E026B9038809
:1079C00043F4004303800EE000BF710806F001039A
:1079D00003B1491C03884FF6FF7C0CEA812C43EA73
:1079E0000C03038000BF00BF13E0FFE760780128AD
:1079F0000FD100BF28682A68B2F8502010442278BE
:107A0000022303EBC20200F5806303EB42010E8008
:107A100000BF00BFB3B222896169286803F086FB0A
:107A200042E12868B0F85010207801EBC000801DBA
:107A3000296801F5806131F81000C0F30907A069D9
:107A4000B84203D3A069C01BA06101E00020A0617F
:107A5000A06900287ED100BF6078C0B900BF296846
:107A60002A68B2F8502011442278022303EBC202A4
:107A700001F5806303EB420000BF0288C2F30902F4
:107A80000280028842F40042028000BF13E0607866
:107A9000012810D100BF28682A68B2F8502010448D
:107AA0002278022303EBC20200F5806303EB42015C
:107AB00000220A8000BF00BF00BF29686078F8B9C3
:107AC00000BF2B68D5F800C0BCF850C0634494F8E0
:107AD00000C04FF0060909EBCC0C03F5806909EBF7
:107AE0004C0000BFB0F800C0CCF3090CA0F800C0F7
:107AF000B0F800C04CF4004CA0F800C000BF10E08B
:107B0000607801280DD12868B0F850000144207831
:107B1000062303EBC00001F5806303EB4002002065
:107B2000108000BF21782846FFF730FD08F4804020
:107B3000002816D100BF00BF22785200296831F812
:107B4000121048F68F7201EA020040F4004141F43D
:107B5000814100E006E023785B002A6822F81310D8
:107B600000BFA1E008F48040A8B900BF00BF2278A0
:107B70005200296831F8121048F68F7201EA0200AB
:107B800040F4004141F4814123785B002A6822F8E7
:107B9000131000BF00BF94F8240001287ED1606953
:107BA00038446061E0693844E0612169206A8842B4
:107BB00004D32669206A801B20620BE0206A20B96A
:107BC0003E46002084F8240004E0266A002020625B
:107BD00084F8240000BF2A68607870BB00BFD5F825
:107BE00000C02968B1F850108C4421784FF0060984
:107BF00009EBC1010CF5806909EB4101084600BFA2
:107C0000B0F80090C9F30909A0F800903E2E15D9EC
:107C100000BF710906F01F09B9F1000F00D1491E1C
:107C2000B0F800904FF4004A4AEA812A1FFA8AFA13
:107C300049EA0A09A0F800901BE01CE036B9B0F848
:107C4000009049F40049A0F8009012E000BF7108CC
:107C500006F00109B9F1000F00D0491CB0F80090FE
:107C60004FF6FF7A0AEA812A49EA0A09A0F8009049
:107C700000BF00BF0FE0607801280CD12868B0F881
:107C8000500002442078062101EBC00002F580611B
:107C900001EB40031E8000BFB3B200E004E0628944
:107CA0006169286803F042FA00BF2278520029680F
:107CB00031F8121048F6BF7201EA020080F010009D
:107CC00080F0200040F4004141F0800223785B0006
:107CD000296821F8132000BF0020BDE8F0872DE9B6
:107CE000F04705460E4690461F464FF0000906F045
:107CF000800080280AD106F0070000EB800105F122
:107D0000280000EBC1040120607009E006F00700C4
:107D100000EB800105F5B47000EBC1040020607039
:107D200006F007002070C4F81080E770022F01D120
:107D30000020207100BF95F8A802012802D102207E
:107D4000BDE8F087012085F8A80200BF2146286819
:107D500002F098F900BF002085F8A80200BF48464D
:107D6000EEE72DE9F04105460E461746984606F027
:107D7000070000EB800105F5B47000EBC1046761FA
:107D8000C4F818800020E061607006F007002070E1
:107D90002146286802F069FC0020BDE8F08170B53A
:107DA00004460E4606F007006168884201D90120AA
:107DB00070BD06F0800080280AD106F0070000EBB5
:107DC000800104F1280000EBC1050120687007E084
:107DD00006EB860104F5B47000EBC1050020687065
:107DE0000120A87006F00700287000BF94F8A802D0
:107DF000012801D10220DBE7012084F8A80200BF9E
:107E00002946206802F003FC00BF002084F8A80285
:107E100000BF00BFCCE72DE9F04105460E46904675
:107E20001F4606F0070000EB800105F1280000EB7B
:107E3000C104C4F81480A761012084F824002762DB
:107E40000020E0610120607006F0070020702146EC
:107E5000286802F00AFC0020BDE8F08170B50446F5
:107E6000206803F033F9054605F40040B0F5004FF3
:107E700003D1204600F0C2FE70BD05F48060B0F56D
:107E8000806F10D12068B0F844004FF6FF310840F1
:107E90002168A1F84400204600F08CF8002120461B
:107EA00000F0A8F8E8E705F48040B0F5804F09D16C
:107EB0002068B0F844004BF6FF7108402168A1F833
:107EC0004400D9E705F40050B0F5005F09D12068FF
:107ED000B0F844004DF6FF7108402168A1F8440055
:107EE000CAE705F48050B0F5805F1ED12068B0F875
:107EF00040004FF6FB7108402168A1F8400020685F
:107F0000B0F840004FF6F77108402168A1F8400032
:107F1000204600F061F82068B0F844004EF6FF718A
:107F200008402168A1F84400A6E705F40060B0F518
:107F3000006F1CD12068B0F8400040F008002168B4
:107F4000A1F840002068B0F844004FF2FF710840EB
:107F50002168A1F844002068B0F8400040F0040017
:107F60002168A1F84000204600F068F884E705F495
:107F70000070B0F5007F0CD12068B0F844004FF6D7
:107F8000FF5108402168A1F84400204600F02BF87A
:107F900072E705F48070B0F5807F09D12068B0F8F1
:107FA00044004FF6FF6108402168A1F8440063E7F0
:107FB00000BF61E770B504460125A068022801D022
:107FC000FFF72BF92946D4F8E80201F056FDD4F862
:107FD000E80201F00CFD70BD10B50446D4F8E802CB
:107FE00001F033FD10BD10B50446D4F8E80201F0ED
:107FF00033FD10BD70B504460D4600BF94F8A802CD
:10800000012801D1022070BD012084F8A80200BF20
:1080100084F824502946206803F081F800BF00202E
:1080200084F8A80200BF00BFEDE710B5044604F5D0
:108030002C71D4F8E80201F037FD10BD10B50446EC
:10804000D4F8E80201F07AFDA06928B1034800687D
:1080500040F006000149086010BD000010ED00E08E
:108060002DE9F04104460D4614B90120BDE8F08128
:108070007E48006800F00100A84218D200BF012D20
:1080800005D17A48006840F00400784908607748D4
:10809000006820F0010028437449086000BF0846CA
:1080A000006800F00100A84201D00120DEE720783E
:1080B00000F00200022807D16D48006820F0F000AF
:1080C000A16808436A490860207800F00100002890
:1080D0007FD06068022807D165480838006800F43E
:1080E0000030F8B90120C1E76068032807D1604873
:1080F0000838006800F00070A0B90120B6E7606899
:10810000012807D15A480838006800F0020048B931
:108110000120ABE756480838006800F4007008B941
:108120000120A3E75248006820F00300616808437B
:108130004F490860FFF75CF906466068022810D1D5
:1081400008E0FFF755F9801B41F28831884201D9D8
:1081500003208BE74648006800F00C000828F0D1A7
:1081600037E06068032810D108E0FFF741F9801B71
:1081700041F28831884201D9032077E73C48006802
:1081800000F00C000C28F0D123E06068012810D129
:1081900008E0FFF72DF9801B41F28831884201D9B0
:1081A000032063E73248006800F00C000428F0D197
:1081B0000FE008E0FFF71CF9801B41F2883188428C
:1081C00001D9032052E72A48006800F00C0000287B
:1081D000F0D12648006800F00100A84218D900BF7D
:1081E000012D05D12148006840F004001F490860B6
:1081F0001E48006820F0010028431C49086000BFA9
:108200000846006800F00100A84201D001202DE7D7
:10821000207800F00400042807D11548006820F4F5
:10822000E060E168084312490860207800F0080027
:10823000082808D10E48006820F46050216940EAFF
:10824000C1000B49086000F041F809490968C1F311
:108250000311084A515CC840074908600748006894
:10826000FFF7E8F80746384600E70000003C024008
:10827000083802405DB200080C0000200400002015
:1082800001480068704700000C00002000B5FFF7AF
:10829000F7FF04490968C1F30221034A515CC84051
:1082A00000BD0000083802406DB2000800B5FFF7BD
:1082B000E7FF04490968C1F3C221034A515CC84081
:1082C00000BD0000083802406DB200082DE9F05FE3
:1082D0002248D0F8009009F00C0070B3042804D0B4
:1082E000082804D00C2829D103E01D4D32E01D4D93
:1082F00030E01D48C9F3834110F801A0C9F3815053
:10830000441C1648006800F4803050B11548A0FBAA
:108310000A700146224600233846FEF707FF06464C
:1083200009E00F48A0FB0A700146224600233846A8
:10833000FEF7FCFE064635460CE000E000BF0748AD
:10834000001F0068C0F3423B0BF101000121814096
:10835000CD0300BF00BF2846BDE8F09F08380240AB
:108360000024F400001BB70054B200082DE9F843C4
:10837000044614B90120BDE8F883FE48006800F007
:108380000C06FC48006800F48037207800F00100FB
:10839000002875D0082E04D00C2E0ED1B7F5803FE2
:1083A0000BD1F4480838006800F40030002867D08A
:1083B0006068002864D10120DDE700BF6068012803
:1083C00008D1EC480838006840F48030E9490839A1
:1083D00008602DE0606868B9E6480838006820F455
:1083E0008030E449083908600846006820F480209D
:1083F00008601DE0606805280DD1DE480838006877
:1084000040F48020DB49083908600846006840F4E1
:10841000803008600CE0D7480838006820F48030CD
:10842000D449083908600846006820F480200860B4
:1084300000BF606890B1FEF7DBFF054606E0FEF77F
:10844000D7FF401B642801D9032094E7C9480838A6
:10845000006800F400300028F1D011E0FEF7C8FFFA
:10846000054606E0FEF7C4FF401B642801D903203F
:1084700081E7C0480838006800F400300028F1D1D6
:10848000207800F00200022853D1042E02D00C2ED6
:1084900017D1B7B9B7480838006800F0020020B11A
:1084A000E068012801D0012065E7B248001F00689C
:1084B00020F4F850216940EA0120AE49091F086004
:1084C00037E0E06800B30120AB490860FEF790FF99
:1084D000054606E0FEF78CFF401B022801D9032069
:1084E00049E7A4480838006800F002000028F1D0ED
:1084F000A048001F006820F4F850216940EA0120DC
:108500009C49091F086014E000209B490860FEF7A1
:108510006FFF054606E0FEF76BFF401B022801D9FE
:10852000032028E793480838006800F0020000287C
:10853000F1D1207800F01000102871D1F6BB8D48E1
:108540000838006800F4007018B1A06908B901206B
:1085500011E78849091F206A096801F460418842CF
:1085600019D9206A00F0C4FD08B1012003E7814851
:10857000001F006820F46040216A08437D49091FFC
:108580000860217F7B48001F006861F31F60794904
:10859000091F08601AE07748001F006820F4604057
:1085A000216A08437349091F0860217F7148001F31
:1085B000006861F31F606F49091F00E020E0086058
:1085C000206A00F095FD08B10120D4E60121206A5F
:1085D00001EB503101208840C00366490968C1F3AE
:1085E0000311664A515CC8406549086065480068E7
:1085F000FEF720FF8046B8F1000F42D04046BAE6B1
:10860000A06948B301205C490862FEF7F1FE054607
:1086100007E0FEF7EDFE401B022802D90320AAE680
:108620002FE054480838006800F400700028F0D0AB
:108630005048001F006820F46040216A08434D49FB
:10864000091F0860217F4B48001F006861F31F600D
:108650004849091F086014E0002047490862FEF7F6
:10866000C7FE054606E0FEF7C3FE401B022801D9FF
:10867000032080E63F480838006800F400700028B6
:10868000F1D1207800F0080008282CD16069A8B149
:1086900001203D490860FEF7ABFE054606E0FEF707
:1086A000A7FE401B022801D9032064E631482C3084
:1086B000006800F002000028F1D014E000203249E8
:1086C0000860FEF795FE054606E0FEF791FE401BAA
:1086D000022801D903204EE626482C30006800F01D
:1086E00002000028F1D1207800F0040004286ED1A7
:1086F0004FF000091F481C30006800F0805088B916
:1087000000BF1C481C30006840F0805019491C31E3
:1087100008600846006800F08050009000BF00BF6D
:108720004FF001091948006800F48070B0B917488B
:10873000006840F4807015490860FEF759FE054650
:1087400006E0FEF755FE401B642801D9032012E61F
:108750000E48006800F480700028F2D000BFA068C6
:10876000012817D103482C30006840F4807001497B
:108770002C310DE008380240000047425DB200088D
:108780000C000020040000208006474200700040DA
:10879000086028E0A06858B96648006820F4807036
:1087A000644908600846006820F4806008601AE0A8
:1087B000A06805280CD15F48006840F480605D49DE
:1087C00008600846006840F4807008600BE040E0F4
:1087D0005848006820F480705649086008460068D0
:1087E00020F48060086000BFA06898B1FEF700FE2A
:1087F000054608E0FEF7FCFD401B41F28831884247
:1088000001D90320B7E54B48006800F40070002848
:10881000F0D012E0FEF7ECFD054608E0FEF7E8FDBB
:10882000401B41F28831884201D90320A3E5414829
:10883000006800F400700028F0D1B9F1010F07D1F1
:108840003C481038006820F080503A4910390860E0
:1088500000BF606AA8B30C2E52D0606A022839D1DA
:10886000002035490866FEF7C3FD054606E0FEF721
:10887000BFFD401B022801D903207CE52D48343878
:10888000006800F000700028F1D1D4E90A01084323
:10889000216B084327492C39096821F47D010843DD
:1088A00024492C390860012023490866FEF7A0FD01
:1088B000054607E0FEF79CFD401B022802D9032075
:1088C00059E535E01B483438006800F00070002896
:1088D000F0D02DE0002018490866FEF789FD054616
:1088E00006E0FEF785FD401B022801D9032042E582
:1088F00010483438006800F000700028F1D117E00B
:10890000606A012800D136E50A482C38076807F468
:108910008031A06A814209D107F47011E06A814276
:1089200004D107F44001206B814201D0012022E5EF
:10893000002020E5343802400000474270B504466C
:108940002546681EB0F1807F01D301200FE0681E2C
:108950004FF0E02148610F214FF0FF3002F018FC8A
:1089600000204FF0E021886107200861002070BDE1
:1089700010B504460CB9012010BDA06900B100E09B
:1089800000BF94F8410028B9002084F84000204638
:1089900000F02AF8242084F841002068C06820F400
:1089A00000502168C860204600F03AFC2068006949
:1089B00020F49040216808612068406920F02A0076
:1089C000216848612068C06840F400502168C86090
:1089D00000206064202084F8410084F842000020D8
:1089E000606300BFC8E7000010B586B004461421DC
:1089F00001A8FEF7D3FB1849206888422AD100BF9E
:108A00001648006840F48040144908600846006831
:108A100000F48040009000BF00BF00BF081F006846
:108A200040F00100091F08600846006800F00100DE
:108A3000009000BF00BF4FF4C06001900220029080
:108A400000200390032004900720059001A904480A
:108A5000FEF7E6FB06B010BD0038014020380240AA
:108A6000000002402DE9F84F04460E46174699468D
:108A70004FF0000A94F8410020284AD106B117B9F6
:108A80000120BDE8F88F00206064212084F84100B7
:108A9000FEF7AEFC8246A784E784A068B0F5805F4D
:108AA00004D1206910B90025B04602E035464FF0E8
:108AB00000081BE05346002280212046CDF800909C
:108AC00000F086FC08B10320DBE745B9B8F80000E8
:108AD000C0F308002168486008F1020803E0287824
:108AE000216848606D1CE08C401EE084E08C00280A
:108AF000E0D15346002240212046CDF8009000F0FE
:108B000067FC08B10320BCE7202084F84100002066
:108B1000B7E70220B5E700BFFEE7000000B587B069
:108B2000142102A8FEF73AFB00BF2148006840F07C
:108B300004001F4908600846006800F00400019026
:108B400000BF00BF00BF0846006840F0200008607A
:108B50000846006800F02000019000BF00BF00BF81
:108B60000846006840F0010008600846006800F010
:108B70000100019000BF00BF002201210D48FEF757
:108B800031FC4FF40050029000200390012004902B
:108B900002A90948FEF744FB01200290039000203F
:108BA0000490059002A90348FEF73AFB07B000BD08
:108BB0001C380240000002400008024010B50B487B
:108BC0000B4908604FF4E13048600021084881609B
:108BD000C16001610C21416100218161C161FFF728
:108BE000C7FE08B1FEF719FB10BD000000380140B8
:108BF0001800002000BFFEE700BFFEE72DE9F05F90
:108C000005466AE22868B0F844A00AF00F07002F72
:108C10007DD10AF01000B0BB00BF2968098848F672
:108C20000F7201EA020040F400412A68118000BF7F
:108C300005F128042868B0F85010207801EBC00036
:108C4000801C296801F5806131F81000C0F309002B
:108C5000E061E16960690844606100212846FEF72F
:108C600095FC95F824000028CBD0A0690028C8D135
:108C700095F8240040F080002968A1F84C000020FD
:108C800085F8240029E2FFE705F5B4742868068812
:108C900006F4006030B32868B0F85010207801EB7B
:108CA000C000801D296801F5806131F81000C0F313
:108CB0000900E061A18B8BB2E28805F52C71286870
:108CC00002F008FA00BF2968098840F68F7201EAAD
:108CD000020040F080012A68118000BF2846FFF79B
:108CE000A4F9FAE106F4004000288AD000BF296800
:108CF000098840F68F7201EA020040F080012A687C
:108D0000118000BF2868B0F85010207800E07AE0A9
:108D100001EBC000801D296801F5806131F8100069
:108D2000C0F30900E061E06990B1606980B1B4F816
:108D30001CC01FFA8CF3E2886169286802F0CAF946
:108D4000E16960690844606100212846FEF72EFC55
:108D50002868068806F40060002893D106F4405085
:108D6000B0F5405F8ED000BF2A682968B1F8501076
:108D70000A4402F20C41084600BF0388C3F309030A
:108D8000038023693E2B12D900BF23695909237C34
:108D900003F01F0303B9491E03884FF4004C4CEA4B
:108DA000812C1FFA8CFC43EA0C03038017E0236933
:108DB00023B9038843F40043038010E000BF236914
:108DC0005908237C03F0010303B1491C03884FF6C3
:108DD000FF7C0CEA812C43EA0C03038000BF00BF38
:108DE00000BF00BF296809884BF68F7201EA0200B4
:108DF00080F4805080F4005040F4004141F0800144
:108E00002A68118069E17900286830F8116006F459
:108E1000004000286FD000BF7A00296831F8121096
:108E200040F68F7201EA020040F080017B002A6860
:108E300022F8131000BF07EB870105F5B47000EBB3
:108E4000C104207BB8B92868B0F85010207801EB35
:108E5000C000801D296801F5806131F81000C0F361
:108E60000908B8F1000F5ED0E288616943462868BE
:108E700002F030F957E0E078022806D13246214668
:108E80002846FEF7E1FB80464DE000BF00BF227898
:108E90005200296831F8121048F68F7201EA020078
:108EA00040F4004141F0C00123785B002A6822F8B9
:108EB000131000BF00BF21784900286830F8110066
:108EC00000F48040C0B12868B0F85010207801EB61
:108ED000C000801C296801F5806131F81000C0F3E2
:108EE0000908B8F1000F1ED022896169434628683D
:108EF00002F0F0F817E02AE02868B0F85010207867
:108F000001EBC000801D296801F5806131F8100077
:108F1000C0F30908B8F1000F05D0628961694346C2
:108F2000286802F0D7F8E0694044E0616069404495
:108F30006061A06910B12069404504D921782846B4
:108F4000FEF734FB03E02146286801F08EFB06F0B3
:108F50008000002876D007EB870105F1280000EBA0
:108F6000C10400BF7A00296831F8121048F60F7268
:108F700001EA020040F400417B002A6822F8131045
:108F800000BFE078012876D10020A061207B002876
:108F90006BD006F0400080B300BF6078C0B900BF5E
:108FA00029682A68B2F8502011442278022303EB82
:108FB000C20201F5806303EB420000BF0288C2F3E6
:108FC00009020280028842F40042028000BF13E0DE
:108FD0006078012810D100BF28682A68B2F85020B4
:108FE00010442278022303EBC20200F5806303EBF6
:108FF000420100220A8000BF37E0FFE700BF296876
:10900000607800BB00BF2B68D5F800C0BCF850C02A
:10901000634494F800C04FF0060B0BEBCC0C03F547
:10902000806B0BEB4C0000BFB0F800C0CCF3090C18
:10903000A0F800C0B0F800C04CF4004CA0F800C08C
:1090400000BF11E049E0607801280DD12868B0F830
:10905000500001442078062303EBC00001F5806333
:1090600003EB40020020108000BF21782846FEF765
:109070008DFA32E0FFE706F4807048BB2868B0F84C
:109080005010207801EBC000801C296801F5806138
:1090900031F81000C0F30909A069484504D9A06956
:1090A000A0EB0900A06101E00020A061A06920B947
:1090B00021782846FEF76AFA0FE06069484460614B
:1090C000E0694844E0612146286801F0CEFA04E0F6
:1090D000324621462846FEF763FB2868B0F8440074
:1090E00000F4004000287FF48DADBDE8F09F70478C
:1090F00018B5034600222548006800F0F00050BB78
:1091000022481C30006800F0805020B120480068E0
:1091100000F4C05118E000BF1C481C30006840F04B
:1091200080501A4C1C3420602046006800F08050AB
:10913000009000BF00BF1648006800F4C0512046F0
:10914000006820F080502060B1F5C05F03D1B3F516
:10915000404F00D1012200BF012A05D10D4800680F
:1091600040F004000B4C20600A48006820F0010029
:109170001043084C206000BF2046006800F001004A
:10918000904201D0012018BD0020FCE708380240C1
:1091900000700040003C0240704710B5FEF72EF909
:1091A00010BD000000B593B0342106A8FDF7F6FF0E
:1091B000142101A8FDF7F2FF1748006820F4C05001
:1091C00040F40060144908600320069001200790D5
:1091D000099010200A9002200F90C10310914FF4C3
:1091E000402111914105129106A8FFF7BFF808B17F
:1091F000FEF713F80F200190012002900020039049
:1092000004900590002101A8FEF72AFF08B1FEF79F
:1092100004F813B000BD000000700040704700006B
:1092200070B504462168096921F44051E268114390
:10923000226811612269A168114362691143E269E0
:1092400041EA02052168C96849F20C629143294349
:109250002268D1602168496921F44071A2691143F3
:1092600022685161594A2168914202D1FFF71EF8E4
:1092700001E0FFF70BF8E169B1F5004F53D100EBC6
:10928000C00101EB001162685200B1FBF2F16422EF
:10929000B1FBF2F10A0100EBC00101EB00116368C0
:1092A0005B00B1FBF3F100EBC00303EB0013666856
:1092B0007600B3FBF6F36426B3FBF6F303EBC306C9
:1092C00006EB0313A1EB8301322303EBC1016423FB
:1092D000B1FBF3F101F0F80102EB410200EBC00138
:1092E00001EB001163685B00B1FBF3F100EBC0031D
:1092F00003EB001366687600B3FBF6F36426B3FB5A
:10930000F6F303EBC30606EB0313A1EB8301322351
:1093100003EBC1016423B1FBF3F101F00701114438
:109320002268916051E000EBC00101EB001162681E
:109330009200B1FBF2F100EBC00202EB0012636895
:109340009B00B2FBF3F26423B2FBF3F202EBC20325
:1093500003EB0212A1EB8201322202EB0111642223
:10936000B1FBF2F101F0F00100EBC00202EB0012E0
:1093700063689B00B2FBF3F26423B2FBF3F201EBF0
:10938000021200EBC00101EB001163689B00B1FB0E
:10939000F3F100EBC00303EB00136668B600B3FB08
:1093A000F6F36426B3FBF6F303EBC30606EB0313F5
:1093B000A1EB8301322303EB01116423B1FBF3F131
:1093C00001F00F0111442268916070BD0038014026
:1093D0002DE9F04104460D4617469846069E34E0B6
:1093E000701C88B32EB1FEF703F8A0EB0800B04262
:1093F0002BD900BF00BF21680C3151E8001F21F4B8
:10940000D07021680C3141E80002002AF3D100BF7E
:1094100000BF00BF2168143151E8001F21F0010096
:109420002168143141E80002002AF3D100BF202056
:1094300084F8410084F8420000BF002084F8400016
:1094400000BF0320BDE8F081FFE7206800682840E6
:10945000A84201D1012000E00020B842C0D0002085
:10946000F0E770B504460D46D4F88C0229464268F0
:1094700020469047002070BD70B504460D4694F814
:109480007402012804D0022803D003280CD101E083
:1094900000BF00BF6888012805D10020C4F87C0205
:1094A000204600F04AF804E02946204600F01BF868
:1094B00000BF00BF70BD70B506460C4615462B4672
:1094C00022460021304600F07AFA002070BD70B5C7
:1094D00006460C4615462B4622460021304600F033
:1094E00037FB002070BD70B504460D468021204634
:1094F00000F011FB0021204600F00DFB70BD10B5FF
:1095000004460520C4F86C0200231A46194620467A
:1095100000F055FA002010BD70B504460E46154601
:109520000220C4F86C02E56125622B463246002118
:10953000204600F00DFB002070BD10B5044604204D
:10954000C4F86C0200231A461946204600F000FBBE
:10955000002010BD70B504460D46E888012804D0EF
:1095600029462046FFF7BFFF1EE094F87402012849
:1095700004D0022803D0032810D109E000BF002046
:10958000A060012204F108012046FFF7C5FF0AE0B0
:109590000122211D2046FFF7BFFF04E02946204697
:1095A000FFF7A1FF00BF00BF70BDF8B504460E462F
:1095B00070880012082872D2DFE800F082040C20C4
:1095C00082826372207CD4F888120A6869469047C8
:1095D00005467AE0207C40B9D4F88C02816A68465E
:1095E000884705460221697007E0D4F88C02C16AF9
:1095F0006846884705460221697066E0B07806280B
:1096000034D2DFE800F0030B131B232B207CD4F8AB
:1096100088124A6869469047054630E0207CD4F8B5
:1096200088128A6869469047054628E0207CD4F86D
:109630008812CA6869469047054620E0207CD4F825
:1096400088120A6969469047054618E0207CD4F8DC
:1096500088124A6969469047054610E0207CD4F894
:1096600088128A6969469047054608E0B178D4F8BF
:109670008C026A46836B20469847054600BF00BFB0
:1096800023E0207C30B9D4F88C02416B68468847CF
:1096900005461AE031462046FFF725FFF8BD0FE0EA
:1096A000207C40B9D4F88C02016B68468847054697
:1096B0000721697009E031462046FFF714FFEDE706
:1096C00031462046FFF70FFFE8E700BFBDF8000076
:1096D00088B1F08878B1F088BDF80010884202DDCA
:1096E000BDF8000000E0F0880090BDF80020294699
:1096F0002046FFF711FFF08810B92046FFF71DFF45
:1097000000BFCBE770B504460D4694F874020128FB
:1097100004D0022803D003281AD101E000BF00BF03
:10972000E888022804D029462046FFF7DCFE14E032
:109730000120E060D4F87C0218B1E06840F002003B
:10974000E060022204F10C012046FFF7E5FE04E090
:1097500029462046FFF7C7FE00BF00BF70BD014687
:10976000002031B1012906D0022906D0032908D1F1
:1097700005E0002007E0022005E0012003E00220D0
:1097800001E0022000BF00BF70472DE9F041044610
:109790000D46002600272946D4F89802FDF716FF4B
:1097A00006463046FFF7DBFF07463846BDE8F08146
:1097B0002DE9F04104460E461746002E64D104F10F
:1097C0001405D4F86C02022848D1D5E90301884277
:1097D00010D9D5E90301401AE860A88982B2394658
:1097E0002046FFF774FE00231A461946204600F073
:1097F000E6F83EE02969A868B0FBF1F201FB12002F
:10980000B8B92969A868884213D3A868D4F8701237
:1098100088420ED2002211462046FFF758FE002053
:10982000C4F8700200231A461946204600F0C7F813
:109830001FE0D4F88C02C06840B194F87402032889
:1098400004D1D4F88C02C168204688478021204684
:1098500000F061F92046FFF752FE0AE0D4F86C02EE
:10986000042802D0D4F86C0218B98021204600F0F8
:1098700052F994F87802012818D1204600F094F9A2
:10988000002084F8780211E0D4F88C02406950B1CD
:1098900094F87402032806D1D4F88C023146426948
:1098A0002046904702E00220BDE8F0810020FBE75F
:1098B0002DE9F04104460E461746BEBB04F5A075DF
:1098C000D4F86C02032825D1D5E90301884210D9C8
:1098D000D5E90301401AE860D5E90301884201D2C5
:1098E000E86800E0286982B239462046FFF7E3FDC8
:1098F0002FE0D4F88C02006940B194F87402032878
:1099000004D1D4F88C020169204688472046FFF72D
:1099100014FE1EE0D4F86C0205281AD10020C4F809
:109920006C020021204600F0F6F812E0FFE7D4F8C0
:109930008C02806950B194F87402032806D1D4F8DF
:109940008C02314682692046904702E00220BDE841
:10995000F0810020FBE710B50246D2F8983201F002
:109960008000802809D101F07F0000EB800403F122
:10997000280000EBC400807810BD01F07F0000EBF0
:10998000800403F5B47000EBC4008078F4E72DE99F
:10999000F04704460F4615461E464FF00008C146E4
:1099A0002B4632463946D4F89802FEF798F980469D
:1099B0004046FFF7D4FE81464846BDE8F0872DE9D2
:1099C000F04704460D4616461F464FF00008C146B4
:1099D0003B4632462946D4F89802FEF7C2F9804643
:1099E0004046FFF7BCFE81464846BDE8F08710B50B
:1099F00004464023002211462046FFF7C8FF0121FC
:109A00004FF4A270015140214FF4A870015140233E
:109A1000002280212046FFF7BAFF0121A1614021E9
:109A20006162012084F874020020C4F86C02606056
:109A3000C4F87C02D4F8900228B12179D4F88C02C1
:109A4000426820469047002010BD014691F87502FB
:109A500081F874020020704710B5044694F874022F
:109A6000032808D1D4F88C02C06920B1D4F88C0244
:109A7000C16920468847002010BD024611740020AD
:109A800070472DE9F04104460D460026002729467F
:109A9000D4F89802FEF7AEFA06463046FFF75FFEAE
:109AA00007463846BDE8F08170B504460D462946A4
:109AB00004F5207000F064F80120C4F86C0240F254
:109AC0008620005BC4F8700294F8800200F01F004A
:109AD00020B1012808D0022812D10BE004F5207132
:109AE000204600F023F913E004F52071204600F031
:109AF0008AFA0DE004F52071204600F068F907E0CD
:109B000094F8800200F08001204600F004F800BFC5
:109B100000BF002070BD2DE9F04104460D4600262F
:109B200000272946D4F89802FEF739F90646304650
:109B3000FFF715FE07463846BDE8F081014691F86B
:109B4000740281F87502042081F8740200207047C5
:109B50002DE9F04704460D4616461F464FF0000813
:109B6000C1463B4632462946D4F89802FEF753F9DF
:109B700080464046FFF7F3FD81464846BDE8F08742
:109B80000A7802704A7842708B78CA7803EB022216
:109B900042800B794A7903EB022282808B79CA7961
:109BA00003EB0222C280704701460020704770B567
:109BB00004460D46A88810BBE88800BB688880284A
:109BC0001DD2A87800F07F0694F87402032804D10F
:109BD00029462046FFF787FC15E084F87662314677
:109BE0002046FFF74EFF2046FFF7A7FC1EB10220DC
:109BF00084F8740207E0012084F8740203E0294627
:109C00002046FFF770FC70BD70B504460D46022675
:109C1000D4F88C0238B1D4F88C0229460268204668
:109C2000904700B90026304670BD000070B504466C
:109C30000D46A8783649087008460078012804D9EE
:109C400029462046FFF74FFC60E094F87402022892
:109C500002D003284FD11CE02D480078A8B12C4831
:109C600000786060032084F8740229480178204657
:109C7000FFF7CAFF022804D129462046FFF733FC2C
:109C800070BD2046FFF759FC02E02046FFF755FC67
:109C90003BE01F48007870B9022084F874021C4829
:109CA000007860601A4801782046FFF7DAFB20460A
:109CB000FFF743FC1EE0164909786068884216D019
:109CC00021792046FFF7CDFB1148007860601048ED
:109CD00001782046FFF798FF022804D12946204644
:109CE000FFF701FCCCE72046FFF727FC02E0204607
:109CF000FFF723FC09E029462046FFF7F4FB044860
:109D000001782046FFF7ADFB00BF00BF00BFB7E7FB
:109D10001000002070B505460C466088012804D16B
:109D2000C5F87C022846FFF708FC70BD70B50546F3
:109D30000C460026207800F0600060B1202802D098
:109D400040283CD100E000BFD5F88C022146826853
:109D50002846904738E060780A2829D2DFE800F0EA
:109D60001923281E280A0528140F21462846FFF724
:109D70001CFC22E021462846FFF719FF1DE0214682
:109D80002846FFF753FF18E021462846FFF7E2FB7D
:109D900013E021462846FFF7B5FC0EE02146284691
:109DA000FFF7B8FF09E021462846FFF765FB04E00E
:109DB00021462846FFF797FB00BF00BF04E021467D
:109DC0002846FFF790FB00BF00BF304670BD2DE96D
:109DD000F04105460E464FF000083479307800F027
:109DE000600060B1202802D0402871D100E000BF9F
:109DF000D5F88C02314682682846904700E13078D9
:109E000000F06000202809D1D5F88C023146826824
:109E10002846904780464046BDE8F081707800288B
:109E20005ED001282FD0032876D195F8740202283D
:109E300002D0032820D110E054B1802C08D0214654
:109E40002846FFF768FE80212846FFF764FE03E0FE
:109E500031462846FFF747FB13E0708840B93CB114
:109E6000802C05D0F08818B921462846FFF753FE0C
:109E70002846FFF762FB04E031462846FFF733FB34
:109E800000BF00BFB5E095F87402022802D0032895
:109E90001FD110E054B1802C08D021462846FFF78E
:109EA0003AFE80212846FFF736FE03E03146284679
:109EB000FFF719FB12E0708848B904F07F0018B171
:109EC00021462846FFF761FC2846FFF736FB05E0F0
:109ED00091E031462846FFF706FB00BF00BF88E04F
:109EE00095F87402022802D0032876D126E034B116
:109EF000802C04D031462846FFF7F5FA72E004F0D2
:109F00008000802809D104F07F0000EB800105F17A
:109F1000140000EB810008E066E004F07F0000EB35
:109F2000800105F5A07000EB810007460020386035
:109F3000022239462846FFF7EFFA53E004F080008A
:109F400080280ED104F00F0000EB800105F1140011
:109F500000EB8100406898B931462846FFF7C3FA04
:109F600040E004F00F0000EB800105F5A07000EB6D
:109F70008100406820B931462846FFF7B4FA31E045
:109F800004F08000802808D104F07F0000EB8001FD
:109F900005F1140000EB810007E004F07F0000EB06
:109FA000800105F5A07000EB810007460CB1802C04
:109FB00002D10020386009E021462846FFF7CBFC9B
:109FC00010B10120386001E00020386002223946DB
:109FD0002846FFF7A1FA05E0FFE731462846FFF7DC
:109FE00082FA00BF00BF04E031462846FFF77BFA43
:109FF00000BF00BF04E031462846FFF774FA00BFF7
:10A0000000BF404608E770B505460C46002620789C
:10A0100000F0600030B1202802D040282AD100E0B2
:10A0200000BF00BF95F87402012804D0022803D0B5
:10A03000032818D101E000BF00BF207901280DD806
:10A04000D5F88C0221468268284690470646E0886B
:10A0500040B93EB92846FFF770FA03E0214628468A
:10A06000FFF741FA04E021462846FFF73CFA00BF1B
:10A0700000BF04E021462846FFF735FA00BF00BFC5
:10A08000002070BDF0B5024600260878400032F886
:10A09000100048F68F1400EA0403C87830B1012894
:10A0A0000CD0022805D003280BD104E043F4007340
:10A0B00009E000BF07E043F4C06304E043F48063B9
:10A0C00001E0012600BF00BF43F4004040F08000E3
:10A0D0000C78640022F8140000BF0C78640032F899
:10A0E000144048F68F752C400D7844EA050040F482
:10A0F000004444F080040D786D0022F8154000BF44
:10A10000087B00287ED14878002852D000BF104636
:10A11000B2F8505028440D7800F5806707EB05141D
:10A12000CD886D106D00258000BF00BF0C786400E5
:10A1300032F8140000F040048CB100BF0D786D00BF
:10A1400032F8155048F68F7705EA070444F40045C5
:10A1500045F0C0050F787F0022F8175000BF00BF00
:10A16000C878012813D000BF0C78640032F814407E
:10A1700048F6BF7504EA050080F0200040F4004472
:10A1800044F080040D786D0022F81540D0E100BF46
:10A190000C78640032F8144048F6BF7504EA0500F4
:10A1A00040F4004444F080040D786D0022F815401E
:10A1B000BEE100BF1046B2F8505028440D78042785
:10A1C00007EBC50500F5806707EB4504CD886D10EA
:10A1D0006D00258000BF00BF1546B2F850402544F1
:10A1E0000C78062707EBC40405F5806707EB4404E9
:10A1F000204600BF0788C7F3090707800F693E2F75
:10A2000014D900E073E000BF0F697C090F7C07F0F0
:10A210001F0707B9641E07884FF4004C4CEA842CD2
:10A220001FFA8CFC47EA0C07078017E00F6927B973
:10A23000078847F40047078010E000BF0F697C08DB
:10A240000F7C07F0010707B1641C07884FF6FF7CFD
:10A250000CEA842C47EA0C07078000BF00BF00BF50
:10A2600000BF0C78640032F8140000F480448CB114
:10A2700000BF0D786D0032F8155048F68F7705EA6B
:10A28000070444F4004545F481450F787F0022F827
:10A29000175000BF00BF0878A8B900BF0C78640051
:10A2A00032F814404BF68F7504EA050080F48050B4
:10A2B00080F4005040F4004444F080040D786D00B8
:10A2C00022F8154034E100BF0C78640032F81440E5
:10A2D0004BF68F7504EA050080F4005040F400440A
:10A2E00044F080040D786D0022F8154020E1C87814
:10A2F000022811D100BF0C78640032F8144048F6EF
:10A300008F7504EA050040F4004444F4C0740D78ED
:10A310006D0022F8154011E000BF0C78640032F89F
:10A32000144048F68F6504EA050040F4004444F008
:10A3300080040D786D0022F8154000BF00BF00BFFB
:10A3400000BF1046B2F8505028440D7800F58067E1
:10A3500007EB05140D896D106D00258000BF00BF4F
:10A3600000BF00BF1046B2F8505028440D780427B3
:10A3700007EBC50500F5806707EB45044D896D10B7
:10A380006D00258000BF00BF00BF4878E8BB00BF5C
:10A390000C78640032F8140000F480448CB100BFE3
:10A3A0000D786D0032F8155048F68F7705EA0704EE
:10A3B00044F4004545F481450F787F0022F817509A
:10A3C00000BF00BF00BF0C78640032F8140000F03A
:10A3D00040048CB100BF0D786D0032F8155048F67E
:10A3E0008F7705EA070444F4004545F0C0050F786F
:10A3F0007F0022F8175000BF00BF00BF0C78640038
:10A4000032F814404BF68F7500E020E004EA0500B6
:10A4100080F4805080F4005040F4004444F0800404
:10A420000D786D0022F8154000BF00BF0C78640065
:10A4300032F8144048F6BF7504EA050040F40044C1
:10A4400044F080040D786D0022F8154070E000BFE4
:10A450000C78640032F8140000F480448CB100BF22
:10A460000D786D0032F8155048F68F7705EA07042D
:10A4700044F4004545F481450F787F0022F81750D9
:10A4800000BF00BF00BF0C78640032F8140000F079
:10A4900040048CB100BF0D786D0032F8155048F6BD
:10A4A0008F7705EA070444F4004545F0C0050F78AE
:10A4B0007F0022F8175000BF00BFC878012813D0D2
:10A4C00000BF0C78640032F8144048F6BF7504EA07
:10A4D000050080F0200040F4004444F080040D7832
:10A4E0006D0022F8154011E000BF0C78640032F8CE
:10A4F000144048F6BF7504EA050040F4004444F0F7
:10A5000080040D786D0022F8154000BF00BF0C7864
:10A51000640032F814404BF68F7504EA050040F4ED
:10A52000004444F080040D786D0022F8154000BF0F
:10A530003046F0BD30B50246087B002865D148782A
:10A5400088B300BF0B785B0032F8130000F04003C3
:10A550008BB100BF0C78640032F8144048F68F7558
:10A5600004EA050343F4004444F0C0040D786D0090
:10A5700022F8154000BF00BFC878012845D000BFB1
:10A580000B785B0032F8133048F6BF7403EA04001E
:10A5900080F0200040F4004343F080030C78640016
:10A5A00022F8143031E0FFE700BF0B785B0032F88F
:10A5B000130000F480438BB100BF0C78640032F8C4
:10A5C000144048F68F7504EA050343F4004444F44C
:10A5D00081440D786D0022F8154000BF00BF00BF18
:10A5E0000B785B0032F813304BF68F7403EA0400EB
:10A5F00080F4805080F4005040F4004343F0800326
:10A600000C78640022F8143000BF002030BD10B573
:10A610000246487898B100BF0B785B0032F81330DF
:10A6200048F6BF7403EA040080F0100040F40043D1
:10A6300043F080030C78640022F8143013E000BF6C
:10A640000B785B0032F813304BF68F7403EA04008A
:10A6500080F4805040F4004343F080030C786400A1
:10A6600022F8143000BF002010BD2DE9F047064647
:10A670000C466078012872D12169A069884201D90D
:10A68000256900E0A569207BA0B9ABB2E28830461D
:10A69000616900F04BFD00BF3046B6F85020104411
:10A6A0002278022303EBC20200F5806303EB420130
:10A6B0000D80C1E2E078022870D12169206A8842C9
:10A6C0006DD900BF2178490036F8111048F68F7215
:10A6D00001EA020040F4004141F4C07122785200C6
:10A6E00026F8121000BF206A401B2062207840002C
:10A6F00036F8100000F04000002874D000BF334648
:10A70000607868BB00BF3246B6F850100A44217822
:10A710004FF0060909EBC10102F5806909EB41011F
:10A72000084600BFB0F80090C9F30909A0F80090EE
:10A730003E2D16D900BF690905F01F09B9F1000FB8
:10A7400000D1491EB0F800904FF4004A4AEA812A2D
:10A750001FFA8AFA49EA0A09A0F800901CE081E28F
:10A760001EE035B9B0F8009049F40049A0F8009017
:10A7700012E000BF690805F00109B9F1000F00D02F
:10A78000491CB0F800904FF6FF7A0AEA812A49EA9C
:10A790000A09A0F8009000BF00BF11E07EE153E17C
:10A7A000607801280CD1B6F85000034420780621C7
:10A7B00001EBC00003F5806101EB400CACF80050E8
:10A7C00000BF6789ABB23A463046616900F0AEFC23
:10A7D0006069284460612169206A884204D9206A3E
:10A7E000401B206203E05EE0256A0020206200BF7B
:10A7F0006078E0BB00BF3246B6F850100A442178BA
:10A80000022303EBC10102F5806303EB410108461B
:10A8100000BF0388C3F3090303803E2D10D900BF96
:10A82000690905F01F0303B9491E03884FF4004C62
:10A830004CEA812C1FFA8CFC43EA0C03038014E0E1
:10A8400025B9038843F4004303800EE000BF690884
:10A8500005F0010303B1491C03884FF6FF7C0CEAA5
:10A86000812C43EA0C03038000BF00BF12E0FFE726
:10A87000607801280ED100BF3046B6F85020104451
:10A880002278022303EBC20200F5806303EB42014E
:10A890000D8000BF00BF2789ABB23A4630466169E0
:10A8A00000F044FCC8E100BF6078E0BB00BF324666
:10A8B000B6F850100A442178022303EBC10102F5D7
:10A8C000806303EB4101084600BF0388C3F309031B
:10A8D00003803E2D10D900BF690905F01F0303B99D
:10A8E000491E03884FF4004C4CEA812C1FFA8CFC63
:10A8F00043EA0C03038014E025B9038843F40043C2
:10A9000003800EE000BF690805F0010303B1491C94
:10A9100003884FF6FF7C0CEA812C43EA0C0303808A
:10A9200000BF00BF12E0FFE7607801280ED100BF32
:10A930003046B6F8502010442278022303EBC202BE
:10A9400000F5806303EB42010D8000BF00BF278943
:10A95000ABB23A463046616900F0E8FB60692844D2
:10A9600060612169206A884203D9206A401B206205
:10A9700002E0256A0020206200BF33466078A0BB59
:10A9800000BF3246B6F850100A4421784FF006094D
:10A9900009EBC10102F5806909EB4101084600BFDE
:10A9A000B0F80090C9F30909A0F800903E2D14D921
:10A9B00000BF690905F01F09B9F1000F00D1491E58
:10A9C000B0F800904FF4004A4AEA812A1FFA8AFA46
:10A9D00049EA0A09A0F800901BE03DB9B0F80090E0
:10A9E00049F40049A0F8009013E014E000BF6908A2
:10A9F00005F00109B9F1000F00D0491CB0F8009032
:10AA00004FF6FF7A0AEA812A49EA0A09A0F800907B
:10AA100000BF00BF0FE0607801280CD1B6F85000ED
:10AA200003442078062101EBC00003F5806101EBAF
:10AA3000400CACF8005000BF6789ABB23A463046D4
:10AA4000616900F073FBF7E0256A00BF21784900D7
:10AA500036F8111048F68F6201EA020040F4004116
:10AA600041F080012278520026F8121000BF00BF8A
:10AA70003046B6F8502010442278022303EBC2027D
:10AA800000F5806303EB42010D8000BF2789ABB264
:10AA90003A463046616900F049FBCDE0206A401B30
:10AAA00020622078400036F8100000F0400080B3AB
:10AAB00000BF3346607868BB00BF3246B6F850101E
:10AAC0000A4421784FF0060909EBC10102F58069BB
:10AAD00009EB4101084600BFB0F80090C9F309092D
:10AAE000A0F800903E2D16D900BF690905F01F0996
:10AAF000B9F1000F00D1491EB0F800904FF4004AA0
:10AB00004AEA812A1FFA8AFA49EA0A09A0F800905B
:10AB10001CE036E01CE035B9B0F8009049F400497B
:10AB2000A0F8009012E000BF690805F00109B9F132
:10AB3000000F00D0491CB0F800904FF6FF7A0AEAE7
:10AB4000812A49EA0A09A0F8009000BF00BF0FE07F
:10AB5000607801280CD1B6F8500003442078062113
:10AB600001EBC00003F5806101EB400CACF8005034
:10AB700000BF6789ABB23A463046616900F0D6FA49
:10AB80005AE000BF6078E0BB00BF3246B6F8501014
:10AB90000A442178022303EBC10102F5806303EB31
:10ABA0004101084600BF0388C3F3090303803E2D1B
:10ABB00010D900BF690905F01F0303B9491E0388B6
:10ABC0004FF4004C4CEA812C1FFA8CFC43EA0C0336
:10ABD000038014E025B9038843F4004303800EE0AA
:10ABE00000BF690805F0010303B1491C03884FF653
:10ABF000FF7C0CEA812C43EA0C03038000BF00BFFA
:10AC000012E0FFE7607801280ED100BF3046B6F8A9
:10AC1000502010442278022303EBC20200F5806327
:10AC200003EB42010D8000BF00BF2789ABB23A465B
:10AC30003046616900F07AFA00BF2178490036F8A1
:10AC4000111048F6BF7201EA020080F0100080F097
:10AC5000200040F4004141F080012278520026F8A3
:10AC6000121028E2207B88BB2169A069884204D9A0
:10AC70002569A069401BA06102E0A5690020A061D0
:10AC800000BF3246B6F850100A442178062303EB81
:10AC9000C10102F5806303EB4101084600BF038850
:10ACA000C3F3090303803E2D11D900BF690905F0E4
:10ACB0001F0303B9491E03884FF4004C4CEA812C52
:10ACC0001FFA8CFC43EA0C03038015E016E025B95B
:10ACD000038843F4004303800EE000BF690805F0D9
:10ACE000010303B1491C03884FF6FF7C0CEA812C59
:10ACF00043EA0C03038000BF00BFC6E1E0780228EE
:10AD00007CD100BF00BF607878BB00BF3246B6F888
:10AD100050100A442178022303EBC10102F580633D
:10AD200003EB4101084600BF0388C3F30903038016
:10AD300023693E2B12D900BF23695909237C03F0F4
:10AD40001F0303B9491E03884FF4004C4CEA812CC1
:10AD50001FFA8CFC43EA0C03038018E023692BB92B
:10AD6000038843F40043038011E012E000BF23692D
:10AD70005908237C03F0010303B1491C03884FF6F3
:10AD8000FF7C0CEA812C43EA0C03038000BF00BF68
:10AD900012E0607801280FD100BF3046B6F850208D
:10ADA00010442278022303EBC20200F5806303EB18
:10ADB0004201228A0A8000BF00BF00BF334660788C
:10ADC000B0BB00BF3246B6F850100A4421784FF0AD
:10ADD000060909EBC10102F5806909EB410108464A
:10ADE00000BFB0F80090C9F30909A0F80090D4F8AA
:10ADF0001090B9F13E0F1CD900BF00E07BE0D4F801
:10AE000010904FEA591194F8109009F01F09B9F108
:10AE1000000F00D1491EB0F800904FF4004A4AEAF2
:10AE2000812A1FFA8AFA49EA0A09A0F8009024E068
:10AE300025E0D4F81090B9F1000F06D1B0F80090D9
:10AE400049F40049A0F8009017E000BFD4F8109032
:10AE50004FEA590194F8109009F00109B9F1000F77
:10AE600000D0491CB0F800904FF6FF7A0AEA812A18
:10AE700049EA0A09A0F8009000BF00BF10E060781E
:10AE800001280DD1B6F8500003442078062101EBCB
:10AE9000C00003F5806101EB400C208AACF8000093
:10AEA00000BF00BFE069002824D02078400036F8B9
:10AEB000108008F4804010B108F0400038B908F460
:10AEC0008040002816D108F04000002812D100BFB1
:10AED00000BF2178490036F8111048F68F7201EA58
:10AEE000020040F4004141F0C0012278520026F8EF
:10AEF000121000BFC9E0E07801287ED12169A06965
:10AF0000884204D92569A069401BA06102E0A569B7
:10AF10000020A06100BF00BF6078E0BB00BF3246E8
:10AF2000B6F850100A442178022303EBC10102F560
:10AF3000806303EB4101084600BF0388C3F30903A4
:10AF400003803E2D10D900BF690905F01F0303B926
:10AF5000491E03884FF4004C4CEA812C1FFA8CFCEC
:10AF600043EA0C03038014E025B9038843F400434B
:10AF700003800EE000BF690805F0010303B1491C1E
:10AF800003884FF6FF7C0CEA812C43EA0C03038014
:10AF900000BF00BF12E0FFE7607801280ED100BFBC
:10AFA0003046B6F8502010442278022303EBC20248
:10AFB00000F5806303EB42010D8000BF00BF00BFBE
:10AFC0003346607870BB00BF3246B6F850100A4472
:10AFD00021784FF0060909EBC10102F5806909EB00
:10AFE0004101084600BFB0F80090C9F30909A0F874
:10AFF00000903E2D17D900BF00E043E0690905F03D
:10B000001F09B9F1000F00D1491EB0F800904FF4AC
:10B01000004A4AEA812A1FFA8AFA49EA0A09A0F88C
:10B0200000901BE01CE035B9B0F8009049F40049ED
:10B03000A0F8009012E000BF690805F00109B9F11D
:10B04000000F00D0491CB0F800904FF6FF7A0AEAD2
:10B05000812A49EA0A09A0F8009000BF00BF0FE06A
:10B06000607801280CD1B6F85000034420780621FE
:10B0700001EBC00003F5806101EB400CACF800501F
:10B0800000BF02E00120BDE8F08700BF2178490041
:10B0900036F811104BF68F7201EA020080F48050EE
:10B0A00080F4005040F4004141F0800122785200C9
:10B0B00026F8121000BF0020E5E7000010B5024896
:10B0C000FCF7CCFE10BD0000600000200146B1F886
:10B0D000440070472DE9F04304460E4615464FEAFA
:10B0E000530CA046304608F5806909EB45026746D7
:10B0F0000AE01188921C0170401C4FEA112980F867
:10B100000090401C921C7F1E002FF2D103F0010919
:10B11000B9F1000F01D011880170BDE8F08302463B
:10B1200011B98020A2F84C00002070472DE9F043AF
:10B1300004460D461E4606F101094FEA590CA04689
:10B14000284608F5806909EB420367460AE0017862
:10B1500090F8019041EA092119809B1C9B1C401C1E
:10B16000401C7F1E002FF2D1BDE8F08300BFFEE738
:10B17000014A024900F02FB8F9B10008140000207C
:10B1800002480068C0F30220704700000CED00E0A8
:10B1900010B5002804DB0A07130E054A135406E015
:10B1A0000A07140E034A00F00F031B1FD45410BDEE
:10B1B00000E400E018ED00E002E008C8121F08C13A
:10B1C000002AFAD170477047002001E001C1121F28
:10B1D000002AFBD170472DE9F04116460F46044680
:10B1E000002503E03946B047641C6D1C2078002818
:10B1F000F8D12846BDE8F08113B50C464FF6FF7331
:10B20000012269460248FDF72DFC00981CBD000094
:10B2100018000020FCF7FEF8FDF7C4FFFDF77EFCE8
:10B22000FDF7CCFC02A0FFF7A3FF00BFFEE7000084
:10B230000D0A2A2A2A2A2A2A205553422D444655E5
:10B240002041505020746573742A2A2A2A2A2A0D14
:10B250000A0D0A00030406080C1018203000000034
:10B2600000000000000102030406070809000000B6
:10B27000000102030400000098B200080000002052
:10B2800018000000B8B10008B0B200081800002093
:10B29000580B0000C8B100080000000010000000BA
:10B2A0000100000068FF1F00000000000000000017
:04000005080070F58A
:00000001FF
